:100000000C9495050C94DC050C94DC050C94DC0533
:100010000C94DC050C94DC050C94DC050C94DC05DC
:100020000C94DC050C94DC050C94D8240C94AB25C2
:100030000C944C1C0C94DC050C94DC050C94DC0535
:100040000C94DC050C94DC050C94DC050C94DC05AC
:100050000C94DC050C94B21C0C94DC050C94DC05AF
:100060000C94DC050C94DC050C94DC050C94DC058C
:100070000C94DC050C94DC050C94DC050C94DC057C
:100080000C94DC050C94DC050C94DC050C94DC056C
:100090000C94DC050C94DC050C94DC050C94DC055C
:1000A0000C94DC050C94DC050C94DC05010D020DB0
:1000B00001080208012C022C011602160104010C91
:1000C0000204020C0104012C011602040216022C87
:1000D000011301040213011602040216012C022C62
:1000E0000117011502170215011201130212021362
:1000F000012C0107022C01080207012C0208022C26
:10010000011402140118021801120212010C020C4F
:10011000012C0117022C021701180218012C022CC5
:10012000011901080219020801180218011B021B1B
:10013000012C022C01130213010402040115021503
:10014000010F020F010801150208012C0108021518
:10015000022C020801110211012C0109022C0104D8
:100160000209010C0204020C0117012C0217022CD7
:10017000002B0014001A000800150017001C0018BE
:10018000000C00120013002A0029000400160007CA
:100190000009000A000B000D000E000F00330034B0
:1001A00000E1001D001B00060019000500110010F1
:1001B0000036003700380028003270E000E200E32B
:1001C00000015100002C0002510070510052004FFC
:1001D0000035021E021F02200221022202230224F5
:1001E0000225022602270201004C003A003B003C97
:1001F000003D003E003F002D022E022F0230023152
:10020000020100400041004200430044004500322A
:100210000264024A004D00010001000100010001DA
:10022000000100000003510100AB00AA00A900AECC
:100230000035001E001F00200021002200230024A2
:100240000025002600270001004C003A003B003C3E
:10025000003D003E003F002D002E002F00300031F9
:1002600000010040004100420043004400450032CC
:100270000064004B004E000100010001000100017C
:10028000000100000001000100AB00AA00A900AEBF
:100290000000703270307031703370010001000165
:1002A0000001000100010001003470357036703724
:1002B00070387039703A703B700100010001000124
:1002C0000001000100010001000100010001000126
:1002D00000010001000100010000510100010001C6
:1002E0000001000000010001000100010001000107
:1002F00000010001000100010001000100010001F6
:1003000000010001000100010001000100010001E5
:1003100000010001000100010001000100010001D5
:1003200000010001000100010001000100010001C5
:1003300000010001000100010001000100010001B5
:1003400000010000000100010001000100010001A6
:100350000001000100010001000100010001000195
:100360000001000100010001000100010001000185
:100370000001000100010001000100010001000175
:100380000001000100010001000100010001000165
:100390000001000100010001000100010001000155
:1003A0000001000000010001000100010001000146
:1003B0000001000100010001000100010001000135
:1003C0000001000100010001000100010001000125
:1003D0000001000100010001000100010001000115
:1003E0000001000100010001000100010001000105
:1003F00000010001000100010001000100010001F5
:1004000000010000000100010001000100010001E5
:1004100000010001000100010001000100010001D4
:1004200000010001000100010001000100010001C4
:1004300000010001000100010001000100010001B4
:1004400000010001000100010001000100010001A4
:100450000001000100010001000100010001000194
:100460000001000000010001000100010001000185
:100470000001000100010001000100010001000174
:100480000001000100010001000100010001000164
:100490000001000100010001000100010001000154
:1004A0000001000100010001000100010001000144
:1004B0000001000100010001000100010001000134
:1004C0000001000000010001000100010001000125
:1004D0000001000100010001000100010001000114
:1004E0000001000100010001000100010001000104
:1004F00000010001000100010001000100010001F4
:1005000000010001000100010001000100010001E3
:1005100000010001000100010001000100010001D3
:1005200000010000000100010001000100010001C4
:1005300000010001000100010001000100010001B3
:1005400000010001000100010001000100010001A3
:100550000001000100010001000100010001000193
:100560000001000100010001000100010001000183
:100570000001000100010001000100010001000173
:100580000001000000010001000100010001000164
:100590000001000100010001000100010001000153
:1005A0000001000100010001000100010001000143
:1005B0000001000100010001000100010001000133
:1005C0000001000100010001000100010001000123
:1005D0000001000100010001000100010001000113
:1005E0000001000000010001000100010001000104
:1005F00000010001000100010001000100010001F3
:1006000000010001000100010001000100010001E2
:1006100000010001000100010001000100010001D2
:1006200000010001000100010001000100010001C2
:1006300000010001000100010001000100010001B2
:1006400000010000000100010001000100010001A3
:100650000001000100010001000100010001000192
:100660000001000100010001000100010001000182
:100670000001000100010001000100010001000172
:100680000001000100010001000100010001000162
:100690000001000100010001000100010001000152
:1006A0000001000000010001000100010001000143
:1006B0000001000100010001000100010001000132
:1006C0000001000100010001000100010001000122
:1006D0000001000100010001000100010001000112
:1006E0000001000100010001000100010001000102
:1006F00000010001000100010001000100010001F2
:1007000000010000000100010001000100010001E2
:1007100000010001000100010001000100010001D1
:1007200000010001000100010001000100010001C1
:1007300000010001000100010001000100010001B1
:1007400000010001000100010001000100010001A1
:100750000001000100010001000100010001000191
:100760000001000000010001000100010001000182
:1007700000643214643214783C1E1E140A05000012
:1007800000000101010202030405050607090A0B26
:100790000C0E0F1112141517191B1D1F21232528CC
:1007A0002A2C2F313436393B3E414346494C4F5277
:1007B00055585A5D6164676A6D707376797C7F8382
:1007C00086898C8F9295989B9EA2A5A7AAADB0B35F
:1007D000B6B9BCBEC1C4C6C9CBCED0D3D5D7DADC7E
:1007E000DEE0E2E4E6E8EAEBEDEEF0F1F3F4F5F654
:1007F000F8F9FAFAFBFCFDFDFEFEFEFFFFFFFFFF2E
:10080000FFFFFEFEFEFDFDFCFBFAFAF9F8F6F5F43B
:10081000F3F1F0EEEDEBEAE8E6E4E2E0DEDCDAD775
:10082000D5D3D0CECBC9C6C4C1BEBCB9B6B3B0ADAA
:10083000AAA7A5A29E9B9895928F8C898683807C7F
:10084000797673706D6A6764615D5A5855524F4C82
:10085000494643413E3B393634312F2C2A28252343
:10086000211F1D1B1917151412110F0E0C0B0A094D
:100870000706050504030202010101000000000053
:100880000000000101010101010101010202020257
:10089000020202020203030303030303030404042A
:1008A00004040405050505050606060606070707F0
:1008B00007080808080909090A0A0A0A0B0B0B0CA1
:1008C0000C0C0D0D0D0E0E0F0F0F1010111111123B
:1008D0001213131414151516161717181819191AB8
:1008E0001A1B1C1C1D1D1E1F1F2020212222232419
:1008F000252526272728292A2B2B2C2D2E2F2F3054
:10090000313233343536363738393A3B3C3D3E3F69
:100910004041424344464748494A4B4C4D4F505151
:100920005253555657585A5B5C5E5F60626364660B
:1009300067696A6C6D6E707173747678797B7C7E92
:100940008081838486888A8B8D8F91929496989AE1
:100950009B9D9FA1A3A5A7A9ABADAFB1B3B5B7B9F7
:10096000BBBDBFC1C4C6C8CACCCFD1D3D6D8DADCD0
:10097000DFE1E4E6E8EBEDF0F2F5F7FAFCFF120355
:100980006B006500790062006F0061007200640016
:100990000000160371006D006B00620075006900B5
:1009A0006C00640065007200000004030904090281
:1009B0006D00040100A0FA09040000010301010018
:1009C0000921110100012240000705810308000AE6
:1009D00009040100010301020009211101000122A3
:1009E0004D000705820308000A0904020001030004
:1009F00000000921110100012236000705830308C8
:100A0000000A09040300010300000009211101008C
:100A100001223900070584032000011201100100A2
:100A2000000008EDFE6060010001020001050109FF
:100A300006A101050719E029E715002501950875AC
:100A40000181020508190129059505750191029595
:100A500001750391010507190029F7150025019576
:100A6000F875018102C005010980A1018502160106
:100A7000002603001A81002A830075109501810069
:100A8000C0050C0901A1018503160100269C021A6C
:100A900001002A9C02751095018100C00501090220
:100AA000A1010901A1000509190129051500250168
:100AB00095057501810295017503810105010930D4
:100AC00009311581257F9502750881060938158140
:100AD000257F950175088106050C0A3802158125C8
:100AE0007F950175088106C0C005010906A10105B1
:100AF0000719E029E7150025019508750181029580
:100B000001750881010508190129059505750191EF
:100B1000029501750391010507190029FF150026AB
:100B2000FF00950675088100C00011241FBECFEF9D
:100B3000DAE0DEBFCDBF04B603FE27C080916102BC
:100B400090916202A0916302B09164028730904B51
:100B5000A740B04BD1F41092610210926202109241
:100B600063021092640214BE84B7877F84BF0FB6FD
:100B7000F894A8958091600088618093600010923D
:100B800060000FBEE0E0F8E3099511E0A0E0B1E0FD
:100B9000E0E9F2E502C005900D92A833B107D9F75C
:100BA00022E0A8E3B1E001C01D92A136B207E1F74F
:100BB0000E9425220C94F7280C940000611107C0B4
:100BC000FC018281882319F08CEA90E0089590E07E
:100BD00080E008950895089581E00895089581E0E2
:100BE00008950C94EC050E94F8142FEF84E39CE028
:100BF000215080409040E1F700C000000C94D51CCB
:100C0000FF920F931F93CF93DF938C01FC01C08160
:100C1000D18180918301811148C08281882309F4A8
:100C20003FC0CE010E94281AF82E682FCE010E94E4
:100C3000D419BE018F2D0E948A07EC01B8010E94D1
:100C4000F105882309F478C0B801CE010E94960905
:100C5000882309F471C0C633F0E7DF0709F484C0C4
:100C6000C0F5C53190E7D90728F5C230E0E7DE07C7
:100C700008F099C0C115F0E7DF0709F458C0C1308A
:100C8000D04709F460C081E080933A0180933B0132
:100C9000C801DF91CF911F910F91FF900C94EF0548
:100CA000CE010E94001AF82EC4CFCE010E94281A4D
:100CB000BE01C1CFC43390E7D90709F44EC0C53394
:100CC000D04709F7F80182818823B1F10E94AD0D68
:100CD00033C0CA33F0E7DF0709F457C070F4F801F6
:100CE0008281C833F0E7DF0709F44AC008F443C043
:100CF000882311F10E94F10C1FC0CC33E0E7DE071E
:100D000009F4C3C008F448C0CD33D04709F0BBCFC5
:100D1000F8018281882309F4DFC010923B010E9410
:100D20007C1C909339018093380180E2BBC0F801AC
:100D3000828181110E94F30580E0DF91CF911F91A4
:100D40000F91FF900895F80182818823A9F3809183
:100D50000702816080930702EFCFF8018281882328
:100D600059F30E94B70DE8CFF8018281882321F35F
:100D70000E94A20CE1CF8823F9F20E94BA0CDCCFCA
:100D80008823D1F20E94D90CD7CFF8018281882321
:100D900099F20E94090DD0CFF8018281882361F277
:100DA0000E94210DC9CFF8018281882309F470CFF8
:100DB0000E94DD1B811102C00E94BC1B0E94FA1B15
:100DC00090E09093530280935202FE01E350F0476B
:100DD000809152028160E231F10538F4E750F74D1D
:100DE0000C94A928809152028260809352028091D3
:100DF00052020E94FE1B0E94F8149ECF8091520264
:100E00008460F3CF809152028860EFCF80915202CC
:100E10008061EBCF809152028062E7CF80915202D5
:100E20008064E3CF809152028068DFCF80915202CC
:100E30008C60DBCF809152028E7FD7CF809152029F
:100E40008D7FD3CF809152028B7FCFCF8091520282
:100E5000877FCBCF809152028F7EC7CF8091520285
:100E60008F7DC3CF809152028F7BBFCF8091520282
:100E70008F77BBCF80915202837FB7CF9091520280
:100E8000892F97FB87F98058B0CFF801828188239A
:100E900061F010923A010E947C1C9093390180937A
:100EA000380182E00E94AE1247CF80913A01811151
:100EB0000FC080913801909139010E94881C883CB4
:100EC000910530F486E20E94831186E20E945F124F
:100ED00082E00E94B51230CF80913B0181110FC09A
:100EE00080913801909139010E94881C883C9105BD
:100EF00030F487E20E94831187E20E945F1280E251
:100F0000E8CF0C94E5090C94E7090C94EE050C94D9
:100F100085070895972F70E02CE0929F600D711D5A
:100F20001124FB0190E3899FE00DF11D1124EE0FC8
:100F3000FF1FEF58FE4F859194910895FC01EE0F2D
:100F4000FF1FEF58F84F8591949108950E948A07EA
:100F50000E941A09811520E4920708F08FC08115BC
:100F600040E3940708F0ECC0803E910508F073C0A0
:100F7000803C910508F0D0C0883A910590F4853AFC
:100F8000910508F0CEC08130910509F470C000973A
:100F900009F46DC08430910508F069C090E080E0EC
:100FA00008958D3B9105D0F7883A910509F403C166
:100FB000893A910509F402C18A3A910509F401C1FF
:100FC0008B3A910509F400C18C3A910509F4FFC0F0
:100FD0008B3B910509F4FEC08C3B910509F4FDC0E3
:100FE0008D3A910509F4FCC0803B910509F4FBC0E2
:100FF0008E3A910509F4FAC08F3A910509F4F9C0C7
:10100000813B910509F4F8C0823B910509F4F7C0D2
:10101000833B910509F4F6C0843B910509F4F5C0C2
:10102000853B910509F4F4C0863B910509F4F3C0B2
:10103000873B910509F4F2C0883B910509F4F1C0A2
:10104000893B910509F4F0C08A3B910509F4EFC092
:1010500080E094E408958F3F910509F048F4803FC3
:10106000910508F069C0883E910508F097CF089572
:10107000811560E2960708F061C00895811573E557
:10108000970770F5811522E5920708F064C0811575
:1010900041E5940708F05AC0811560E5960708F409
:1010A00052C09C0154E0369527955A95E1F7922F4E
:1010B0009370282F26952695237070E2279F900124
:1010C0001124392B837041E050E0BA0102C0660F51
:1010D000771F8A95E2F7CB01822B932B9C680895AA
:1010E000811575E5970750F4811524E5920708F4FA
:1010F00043C0982F8827846F906A0895811546E52C
:10110000940708F44DC09C0130569F702115304162
:1011100008F044CF90620895805C91090E949E0778
:101120000895853A910509F440C0863A910509F081
:101130003FC082E890E40895906508959F70EECFD7
:101140009927906C08959F70906A0895982F88272A
:10115000816F906A0895AC014370552721E030E01B
:1011600002C0220F331F4A95E2F78695869570E2FA
:10117000879FC0011124B0CFAC014370552721E0F7
:1011800030E002C0220F331F4A95E2F7869586951C
:1011900040E2849FC0011124822B932B9A6808950A
:1011A000982F882788279F71B5CF81E890E408950C
:1011B00083E890E4089582EE94E4089589EE94E43F
:1011C00008958AEE94E4089585EB94E4089586EBFF
:1011D00094E4089583EB94E4089584EB94E40895F3
:1011E00087EB94E408958CEC94E408958DEC94E4FA
:1011F000089583E895E408958AE895E4089582E9DE
:1012000095E4089584E995E4089581E296E40895CB
:1012100083E296E4089584E296E4089585E296E4F4
:10122000089586E296E4089587E296E408958AE2B6
:1012300096E41DCF8238910549F1B0F481339105D0
:1012400009F462C048F48932910509F456C08A3223
:10125000910509F460C008958533910509F446C0ED
:101260008933910599F00895833E910531F138F461
:10127000803E910591F0823E9105B1F00895863E41
:10128000910521F1873E910551F108952091520277
:101290002370D9F080EE90E008952091520220FF53
:1012A00014C089E390E008952091520222FF0DC0FE
:1012B00024FD09C083EE90E008952091520222FDA2
:1012C00031C024FF02C090E080E0089520915202D6
:1012D00023FFFBCF24FDF7CF87EE90E00895209108
:1012E000520223FFEECF86EE90E008952091520245
:1012F00025FFEBCF89E290E008952091520225FF6F
:10130000E4CF85E390E008952091520226FFDDCFDF
:101310008AE290E008952091520226FFD6CF81E321
:1013200090E0089582EE90E0089508950F931F9342
:10133000CF938C01FB018281811106C0C1E08C2F0B
:10134000CF911F910F910895C0914901C11125C0FE
:101350000531104799F70E94950981E08093490172
:101360000E947C1C909348018093470110923C019D
:1013700010923E0110923D011092400110923F01E7
:1013800010924201109241011092440110924301C7
:101390001092460110924501D2CF80914701909161
:1013A00048010E94881C883C910540F680913C01D0
:1013B000E82FF0E0EE0FFF1FE35CFE4F1183008388
:1013C0008F5F80933C01C0E0BACF0C94EA050C9487
:1013D000EB05CF93DF9385B7806885BF85B78068BD
:1013E00085BFA0E2B1E044E251E0C1E0D0E08D91E0
:1013F000E82FE295EF70F0E061A18F709E0101C0CF
:10140000220F8A95EAF7922F9095962391A382A1B5
:10141000822B82A34A175B0751F7A4E1B1E040E2B7
:1014200051E0C1E0D0E08D91E82FE295EF70F0E05F
:1014300061A18F709E0101C0220F8A95EAF7922F59
:101440009095962391A382A1822B82A34A175B07D2
:1014500051F7109253011092520110924B011092C9
:101460004A01109255011092540110924D011092B0
:101470004C01109257011092560110924F01109298
:101480004E01109259011092580110925101109280
:101490005001DF91CF910C9481074F925F927F9220
:1014A0008F929F92AF92BF92CF92DF92EF92FF9274
:1014B0000F931F93CF93DF939AE4492E91E0592E17
:1014C00020E2E22E21E0F22E01E010E09924939434
:1014D000E201A990B9902E01DE011E921E92F70141
:1014E00081917F01E82FE295EF70F0E091A18F707C
:1014F000980101C0220F8A95EAF7892F822B81A3D8
:1015000082A1822E8094882182A380EA8A95F1F7B5
:1015100084E1C82E81E0D82E90E080E0E601799148
:101520006E01472F42954F7050E0EA0178A04D912F
:101530005C9111977F70E80102C0CC0FDD1F7A9596
:10154000E2F7BE01672109F06AC0B801082E02C0A7
:10155000660F771F0A94E2F7462B572B11965C9380
:101560004E9301968C309105C9F681A1882281A203
:1015700082A1282B22A38D919C91A816B90641F037
:1015800090925A010E947C1C90935C0180935B01B5
:10159000D2E54D16D1E05D0609F09ACF80915A014F
:1015A000882351F180915B0190915C010E94881C1D
:1015B000069710F180914A0190914B01909353014D
:1015C0008093520180914C0190914D01909355016F
:1015D0008093540180914E0190914F019093570157
:1015E000809356018091500190915101909359013F
:1015F0008093580110925A010E94830781E0DF9185
:10160000CF911F910F91FF90EF90DF90CF90BF90FF
:10161000AF909F908F907F905F904F90089570E073
:1016200060E09ACFE82FF0E0EE0FFF1FEE5AFE4F7A
:1016300080819181089508953BB1242F2095232323
:101640003BB1432B3FB7F894680F791F8617970774
:1016500011F43FBF0895FC015191CF01E8E04BB96F
:10166000000000C057FF2BB9550F000000C000C09C
:1016700000C02BB900C0EA9591F7E8CF2AB1242B1E
:101680002AB99B01220F331F620F731F0E941C0B8C
:1016900087EC90E00197F1F700C00000089548E062
:1016A0000C943E0BCF92DF92EF92FF920F931F9319
:1016B000CF93DF93E901662309F466C0E42EF12C91
:1016C000EFEFF0E0E61BF109EE9D8001EF9D100DBC
:1016D000FE9D100D1124212FE12FFF27EE1AFF0A86
:1016E0005CE3C52ED12CB6010E948128FB01BC0110
:1016F000E69EC001E79E900DF69E900D1124B60166
:101700000E948128E230F10589F168F4812F262FAB
:10171000210F309781F0242F461B319761F080E034
:1017200020E040E008C0E430F10551F128F1842FB9
:10173000861B3597A1F7E42FF0E0E258F74F44916C
:10174000E22FF0E0E258F74F9491E82FF0E0E258F2
:10175000F74FE49149839883EA83DF91CF911F91FA
:101760000F91FF90EF90DF90CF900895862F810F1B
:10177000E42F412F2E2FDFCFE42FE61B842FF9CF4C
:10178000842F462F410FD7CF842F242FD4CF88E02A
:1017900090E00C94B728AB01BC0188E090E00C9479
:1017A000D528E4E3F2E083E0808311828FEF828327
:1017B000838360913402709135028091360290915A
:1017C00037020C94CB0B80913402ECE3F2E080FF03
:1017D00006C066E070E08CE392E00C944F0B11823F
:1017E00010821282339682E0EE34F807C1F7F1CF0F
:1017F000ECE3F2E0818360834283339692E0EE343F
:10180000F907C1F70C94E30BEF92FF920F931F932C
:10181000CF93DF9300D00F92CDB7DEB7182FE92E0C
:10182000F62E042F8091340290913502A091360259
:10183000B09137028093380290933902A0933A0214
:10184000B0933B028091340280FF1FC09E012F5F46
:101850003F4F812F9E2D0E94520B8091380210FB2A
:1018600087F9809338021695809139028078812B10
:10187000E0FA87F980933902F0923A0200933B0232
:101880004B8169818A810E94F80B0F900F900F9015
:10189000DF91CF911F910F91FF90EF9008950F93DB
:1018A0001F93CF93DF93EC01062F142F90913402F6
:1018B00090FF43C0892F8E77823021F5CE010E94A0
:1018C000040C80913402C0FB87F980933402C695E2
:1018D000809135028078C82BD0FBC7F9C0933502C0
:1018E00000933602109337026091340270913502F2
:1018F0008091360290913702DF91CF911F910F9125
:101900000C94CB0B892F86958F732EE3280F2F73A2
:10191000243018F410913702D4CF865C8F7389304D
:1019200080F6991F9927991FD0913502CD2FCC0FA2
:10193000C92BD7FBDD27D0F9C4CFDF91CF911F9101
:101940000F910895E4E3F2E02081221F2227221F55
:1019500030913502432F440F842F822B37FB992778
:1019600090F9089668E671E00E94952843816281AB
:101970000C944F0C20913402221F2227221F3091F9
:101980003502432F440F842F822B37FB992790F980
:101990008830910540F4805A9E4F40913702609103
:1019A00036020C944F0C089768E671E00E94952867
:1019B000F4CF60913602683F90F4685F8091340202
:1019C000881F8827881F90913502292F220F97FBA7
:1019D000992790F940913702822B0C944F0C6FEFAE
:1019E000EDCF60913602683090F0685080913402FB
:1019F000881F8827881F90913502292F220F97FB77
:101A0000992790F940913702822B0C944F0C60E09B
:101A1000EDCF40913702483F90F4485F8091340207
:101A2000881F8827881F90913502292F220F97FB46
:101A3000992790F960913602822B0C944F0C4FEF4E
:101A4000EDCF40913702483090F0485080913402F9
:101A5000881F8827881F90913502292F220F97FB16
:101A6000992790F960913602822B0C944F0C40E03C
:101A7000EDCF9091340290FF3BC09178811126C048
:101A8000926090933402609134027091350280919B
:101A90003602909137020E94CB0B80913402982F2E
:101AA0009E779230D9F410927201881F8827881F80
:101AB00090913502292F220F97FB992790F9409199
:101AC000370260913602822B0C944F0C893110F052
:101AD0009063D7CF8F73880F982BD3CF982F96957D
:101AE000925C9F73963108F791E090937201DDCF7D
:101AF00008958091070281608093070281E08093BE
:101B000073010E94DD1B811104C00E94BC1B0E9456
:101B1000D10B0E94C70B60933402709335028093FF
:101B20003602909337026E7761F40E94D10B0E94C7
:101B3000C70B609334027093350280933602909302
:101B4000370281E0809372018091340280FF04C0EB
:101B500086958F730C94390D089580913402869583
:101B60008F738F5F893108F081E00C94390D90916B
:101B70003402892F8E7F90FF8160809334026091C0
:101B800034027091350280913602909137020E94A2
:101B9000CB0B8091340280FF04C086958F730C9428
:101BA000390D109272012FEF80E792E021508040B2
:101BB0009040E1F700C000000C94E30BCF93C82FD6
:101BC00080917001909171010E94881CEC2FF0E0CF
:101BD000E658F84FE491E817190609F010F50E944D
:101BE0007C1C9093710180937001E0916F01F0E093
:101BF000E258F84F449180913402881F8827881F4B
:101C000090913502292F220F97FB992790F9609127
:101C10003602822B0E94040C80916F018F5F8093AB
:101C20006F01CF910895CF93C82F80916D0190914E
:101C30006E010E94881CEC2FF0E0E958F84FE49107
:101C4000E817190609F0E8F40E947C1C90936E01D5
:101C500080936D01409137026091360280916B0153
:101C600090916C010E94040C80916B0190916C0129
:101C7000019668E671E00E94812890936C01809340
:101C80006B01CF910895CF92DF92FF920F931F9334
:101C9000CF93DF93F82E8091690190916A010E94A1
:101CA000881CEF2DE695F0E0E958F84FE491E8172D
:101CB000190609F0A8F50E947C1C90936A01809394
:101CC00069010CE312E0D0E0C0E088E6C82EDD2414
:101CD000D39480916701909168018C0F9D1FB6018C
:101CE0000E948128980140913702609136020E943B
:101CF000520BEC960D5F1F4FC83681E0D80749F7AD
:101D00000E94E30B8091670190916801F0FE10C082
:101D10000196BE010E94812890936801809367011B
:101D2000DF91CF911F910F91FF90DF90CF90089599
:101D30000197F2CFAF92BF92CF92DF92EF92FF92D4
:101D40000F931F93CF93DF93C82FFF24FA9480FD46
:101D500002C0FF24F39480916501909166010E9476
:101D6000881CC695EC2FF0E0EC58F84FE491E8178A
:101D7000190611F008F053C00E947C1C9093660174
:101D800080936501CCE3D2E010E000E097E0C92E3B
:101D9000D12C198218821A8287E0A82EB12CE12C4E
:101DA000809164018E0D87FD8A5F082E000C990BCF
:101DB00080179107E9F4209137022A9DC0012B9DDD
:101DC000900D1124B6010E949528462F809134026F
:101DD000881F8827881F90913502592F550F97FB30
:101DE000992790F99E0160913602852B0E94520B33
:101DF000EF0C81E0A81AB10899F60F5F1F4F2396E8
:101E00000630110531F60E94E30B8091640191E0E8
:101E1000F91212C081110EC085E080936401DF9138
:101E2000CF911F910F91FF90EF90DF90CF90BF90D7
:101E3000AF9008958150F1CF90E00196B8010E94D3
:101E40009528EBCFBF92CF92DF92EF92FF920F9344
:101E50001F93CF93DF93CDB7DEB762970FB6F89499
:101E6000DEBF0FBECDBF182F80916201909163013C
:101E70000E94881CE12FF0E0EF58F84FE491E8173A
:101E8000190611F008F07AC00E947C1C909363013F
:101E9000809362018E010F5F1F4FF12CE12C6801CE
:101EA000D80111961C9211971C9212961C92B12C7B
:101EB0009091000180916101B99E800D11248630BE
:101EC0000CF085E087FD80E0082E000C990B8E1544
:101ED0009F05A1F480913402881F8827881F909164
:101EE0003502592F550F97FB992790F9980140918A
:101EF000370260913602852B0E94520BB394B7E0F3
:101F0000BB12D6CFEFEFEE1AFE0A0D5F1F4FF6E0C1
:101F1000EF16F10429F62CE332E009E010E056E078
:101F2000E52EF12CC801B7010E949528FC01EE0FA7
:101F3000FF1FE80FF91FEC0DFD1D8181D9011196DE
:101F40008C93119780818C93828112968C930F5F72
:101F50001F4F2D5F3F4F0F30110521F70E94E30BFC
:101F600090910001809161019130E1F48A3FB4F4D5
:101F700089EF809361018FEF8093000162960FB625
:101F8000F894DEBF0FBECDBFDF91CF911F910F91AF
:101F9000FF90EF90DF90CF90BF9008958150809395
:101FA0006101ECCF8D302CF08CE08093610181E0F9
:101FB000E3CF8F5FF4CFCF93DF9380915F01909158
:101FC00060010E94881C883E934028F10E947C1C7E
:101FD0009093600180935F0180915D0190915E011B
:101FE00001968170992790935E0180935D01CCE307
:101FF000D2E09E01409137026091360290E080E08D
:102000000E94520B239682E0CE34D80791F7DF91DD
:10201000CF910C94E30BDF91CF91089580917201E1
:10202000882371F18091340286958F739EE3980F17
:102030009F73943018F482500C94DE0D9AE3980F3D
:102040009F73933018F486500C94130E97E3980FF7
:102050009F73963018F489500C94430E91E3980FB7
:102060009F73963018F48F500C949A0E9BE2980F41
:102070009F73933018F485510C94220F0C94DB0F4E
:10208000089590937901809378010895E091780103
:10209000F0917901309721F00190F081E02D0994C1
:1020A00080E00895E0917801F0917901309721F076
:1020B0000280F381E02D09940895E0917801F09178
:1020C0007901309721F00480F581E02D099408957D
:1020D00020917601309177012817390771F090939C
:1020E000770180937601E0917801F0917901309742
:1020F00021F00680F781E02D099408952091740164
:10210000309175012817390771F09093750180930C
:102110007401E0917801F0917901309721F0008409
:10212000F185E02D0994089508950C9494100E946F
:10213000731C0E94E9090E94421D0C94790D5F9264
:102140006F927F928F929F92AF92BF92CF92DF92C7
:10215000EF92FF920F931F93CF93DF93CDB7DEB72C
:102160002A970FB6F894DEBF0FBECDBF0E944D0A6E
:102170009BE7A92E91E0B92E10E000E0882483941B
:10218000912C502E802F0E94120B7C01F501C190E2
:10219000D1905F01C816D90609F45EC0809107028C
:1021A00081FD0E941B0B90E080E0CE24DF243401EF
:1021B000082E02C0660C771C0A94E2F796012621CD
:1021C0003721232B09F443C08E835F82E620F7205A
:1021D00081E0EF2809F480E088870E947C1C816000
:1021E000782F9A8789874E815F8168858A850E94CA
:1021F0005911000F111FF801E558FE4F80819181A0
:1022000068267926718260820E94C01F0E94461053
:1022100090917A018917B9F10E94461080937A0152
:102220002A960FB6F894DEBF0FBECDBFDF91CF91D7
:102230001F910F91FF90EF90DF90CF90BF90AF90E4
:102240009F908F907F906F905F900C94870701967E
:102250008C30910509F0ABCF0F5F1F4F0430110593
:1022600009F08FCF8FEF89838A831B820E947C1CA9
:102270008160782F9D838C8349815A816B818D8108
:102280000E945911C1CF2A960FB6F894DEBF0FBE37
:10229000CDBFDF91CF911F910F91FF90EF90DF9015
:1022A000CF90BF90AF909F908F907F906F905F90F6
:1022B0000895CF93DF93CDB7DEB72B970FB6F89481
:1022C000DEBF0FBECDBF4F83588769877A878B8764
:1022D0001E821D8285E0FE013796DE011196019077
:1022E0000D928A95E1F749815A816B817C818D81BC
:1022F0009E812B960FB6F894DEBF0FBECDBFDF9147
:10230000CF910C948817882309F4D8C0823871F4CF
:102310000E94461081FDD2C089E30E94C81A0E9423
:102320008D1B89E30E94051B0C948D1B833859F487
:102330000E94461080FDC2C083E50E94C81A0E9418
:102340008D1B83E5EFCF843859F40E94461082FD3F
:10235000B5C087E40E94C81A0E948D1B87E4E2CFB3
:102360009CEF980F913A18F40E94C81ADDCF90E2C2
:10237000980F983050F4877091E001C0990F8A95BA
:10238000EAF7892F0E94471BCFCF9BE5980F933028
:1023900070F4853A31F0863A39F083E890E00C9495
:1023A000681081E890E0FBCF82E890E0F8CF98E5F4
:1023B000980F953108F082C0883A09F440C0893AF4
:1023C00009F440C08A3A09F440C08B3A09F440C08D
:1023D0008C3A09F440C08B3B09F440C08C3B09F4B3
:1023E00040C08D3A09F440C0803B09F440C08E3AA9
:1023F00009F440C08F3A09F440C0813B09F440C061
:10240000823B09F440C0833B09F440C0843B09F49B
:1024100040C0853B09F440C0863B09F440C0873B7F
:1024200009F440C0883B09F440C0893B09F440C02E
:102430008A3B09F440C090E080E00C947E1082EE6C
:1024400090E0FBCF89EE90E0F8CF8AEE90E0F5CFF8
:1024500085EB90E0F2CF86EB90E0EFCF83EB90E05E
:10246000ECCF84EB90E0E9CF87EB90E0E6CF8CEC0B
:1024700090E0E3CF8DEC90E0E0CF83E891E0DDCF1A
:102480008AE891E0DACF82E991E0D7CF84E991E060
:10249000D4CF81E292E0D1CF83E292E0CECF84E24A
:1024A00092E0CBCF85E292E0C8CF86E292E0C5CF42
:1024B00087E292E0C2CF8AE292E0BFCF08958823FC
:1024C00009F44BC0823871F40E94461081FF45C068
:1024D00089E30E94C81A0E948D1B89E30E94051B94
:1024E0000C948D1B833859F40E94461080FF35C030
:1024F00083E50E94C81A0E948D1B83E5EFCF8438C4
:1025000059F40E94461082FF28C087E40E94C81A2E
:102510000E948D1B87E4E2CF9CEF980F913AF0F276
:1025200090E2980F983050F4877091E001C0990FB5
:102530008A95EAF7892F0E944D1BD2CF9BE5980F11
:10254000933020F490E080E00C946810885A853134
:1025500020F490E080E00C947E100895882321F010
:102560000E94471B0C948D1B0895882321F00E9424
:102570004D1B0C948D1B08958F929F92AF92BF922A
:10258000DF92EF92FF920F931F93CF93DF937C0123
:10259000D62FC72FFC01058102950F7012811111F2
:1025A0000E94641B0E94C11AD82E882371F0112347
:1025B000A1F080E28D0F883080F082E00E94AB1A9B
:1025C0000E94C11A91E0D82ED926EC2FE295EF7027
:1025D000F0E0E55FF64D0C94A928D12CF6CF0C2F36
:1025E0000F70C07F11F00295007F1123A9F0002326
:1025F00059F080E28D0F883010F0D11109C0802F82
:102600000E94471B0E948D1B8D2F0E94831114C0B6
:10261000802F0E94571BF6CF8D2F0E945F12002340
:1026200059F080E28D0F883010F0D11124C0802F36
:102630000E944D1B0E948D1BDD2009F48FC10E945A
:102640009E1A80FD8BC1F70112820E94981A0E9487
:102650001819C7010E94BA140E94981ADF91CF91ED
:102660001F910F91FF90EF90DF90BF90AF909F90E0
:102670008F900C943919802F0E945D1BDBCFFC2FAB
:10268000FF70BF2EC07FC03219F0B29480EFB82225
:10269000DD2369F0D13029F1112369F1002359F0CC
:1026A000F701858180FFB0CF8F70858304C011232F
:1026B00061F0011104C08B2D0E94AE12BDCF8B2D95
:1026C0000130D1F70E94771BB7CF011106C00E94DD
:1026D0007A1B8B2D0E94B512AFCF013009F4ACCF1D
:1026E000F6CF112321F0063008F0A6CFE4CF053055
:1026F00008F0A2CFEECF002361F38D2F0E945F126E
:102700009BCF8C2F86958695837069F0813009F078
:1027100093CF8D2F9C2F9370111102C090E080E019
:102720000E947E1089CF8D2F9C2F9370111102C0B3
:1027300090E080E00E9468107FCF8D2F112329F058
:102740000E94CE1E0E94B51F77CF0E94361FFACF7F
:102750008C2F837009F047C011116ECF2D2F229559
:1027600026952770220F220F6D2F6F70862E912CC9
:10277000B12CA12C022E04C0880C991CAA1CBB1CD5
:102780000A94D2F760E070E0CB01D4FF0FC06FE095
:1027900070E080E090E004C0660F771F881F991FEB
:1027A0002A95D2F76095709580959095C695C695B7
:1027B000C370C23051F080F4682979298A299B2995
:1027C000C13071F00E94C11837CF682979298A2950
:1027D0009B290E94DD1830CF0E94C118C501B401A9
:1027E0000E94A51829CF8695112311F08C2F817096
:1027F000882309F421CF2D2F229526952770220FAB
:10280000220F6D2F6F70862E912CB12CA12C022ED1
:1028100004C0880C991CAA1CBB1C0A94D2F760E067
:1028200070E0CB01D4FF0FC06FE070E080E090E07B
:1028300004C0660F771F881F991F2A95D2F76095ED
:10284000709580959095C695C695C370C23051F02D
:1028500080F4682979298A299B29C13071F00E9466
:102860009B19EACE682979298A299B290E94B719E0
:10287000E3CE0E949B19C501B4010E947F19DCCEF2
:10288000E0E2ED0FE53108F04DC0F0E0E55EF64D19
:102890000C94A928DF708C2F8F71112321F00E94D6
:1028A00018198D2F09CF0E9439198D2F13CF11239D
:1028B00041F0053008F0C0CE8C2F8F710E945E1958
:1028C000BBCE063008F0B8CEF7CF8C2F8F71112316
:1028D00039F00E941819B0CE8C2F8F711123C9F3D3
:1028E0000E943919A9CE112329F08C2F8F710E94D3
:1028F0000319A2CE0E94F9189FCE112349F0CF717F
:102900008C2F0E94181963E08C2F0E94A21A94CE7B
:1029100081E00E94AB1A023008F48ECE82E00E9461
:10292000AB1A8ACE112329F001116ECE8C2F8F7134
:10293000D0CF0111E2CE8C2F8F71D2CF4C2F4F70A0
:102940006D2FC7010E94DE050E94221875CE4C2F04
:102950004F706D2FC7010E9489076ECEDF91CF9116
:102960001F910F91FF90EF90DF90BF90AF909F90DD
:102970008F9008950F931F93CF93DF93EC018B817A
:102980009C81892B29F08881998189238F3F29F4A3
:10299000DF91CF911F910F910895CE010E94000603
:1029A0008823B1F3688179818A810E94741A8C012D
:1029B0000E94D3190E949A18B801CE01DF91CF91DD
:1029C0001F910F910C94BC120E94641B0E94741BF7
:1029D0000E94391B0E948D1B0E9461200E94B51F1E
:1029E00090E080E00E94681090E080E00C947E10FF
:1029F0000E94541B0C94E4140E946A1AE92FE29579
:102A0000EF70E250EE3070F4F0E0E05DF64D0C94C3
:102A1000A928803F19F020F4803E20F481E0089539
:102A2000843FE1F380E00895803EC0F3813FD1F719
:102A3000F5CF93FB882780F90895CF93DF9300D0DB
:102A400000D00F92CDB7DEB70F900F900F900F9080
:102A50000F90DF91CF910895CF93DF9300D000D0F6
:102A600000D0CDB7DEB726960FB6F894DEBF0FBE06
:102A7000CDBFDF91CF9108951F93CF93DF93C09186
:102A8000840116E0809185018C1304C0DF91CF9101
:102A90001F910895D0E01C9FF0011D9FF00D11249F
:102AA000EA57FE4F40815181628173818481958113
:102AB0000E942C152196C770E5CF4091B601509128
:102AC000B7016091B8017091B9018091BA019091FC
:102AD000BB010C942C151F93CF93DF938091BB0106
:102AE000807FC1F48091B8018823A1F08091840196
:102AF000C09185016091B6017091B7014091B90113
:102B00005091BA01D62FD723DA01A095B09516E0DF
:102B1000C81304C0DF91CF911F91089590E0411533
:102B2000510511F0DF3F31F401968770F1CF2A0F84
:102B30003B1F17C0189FF001199FF00D1124EA5791
:102B4000FE4F21812713F0CF20812613EDCF228164
:102B50002111EACF238134812417350740F3241B48
:102B6000350B283C310500F72091BB012F70206107
:102B70002093BB0126E0289FF001299FF00D11242E
:102B8000E557FE4F80818F708061808386EB91E0F6
:102B90000E94BA14DF91CF911F910C943C15BF9203
:102BA000CF92DF92EF92FF920F931F93CF93DF9319
:102BB000CDB7DEB761970FB6F894DEBF0FBECDBFBD
:102BC0008C0185E0F801DE011D9601900D928A9539
:102BD000E1F7D8014C9111965C9111971296EC9007
:102BE00012978091B9019091BA01009709F47FC1C1
:102BF0002091B6013091B701622F63236F3F09F432
:102C000076C11396CD90DC90B090B801BB2009F44A
:102C100013C1C816D906D0F1F601E81BF90BCF0194
:102C2000FF24F394883C910508F0F12C8091BB01BE
:102C3000982F907FFF2009F4B6C091117FC0FE2C21
:102C4000351329C0241327C0E11025C08F7080617F
:102C50008093BB010E945D1586EB91E00E94BA143F
:102C60008091BB01D80115968C938F2D61960FB67C
:102C7000F894DEBF0FBECDBFDF91CF911F910F91B2
:102C8000FF90EF90DF90CF90BF9008958095909542
:102C90008C0D9D1DC5CFCD2829F0852F84238F3F16
:102CA00009F033C180E0B82FB170DB2E80FF3CC04B
:102CB000809184012091850136E0821315C04D87F3
:102CC0005E878D859E850E946A1A292F22952F7016
:102CD0002230F0F0243018F59F70F1F0F801958162
:102CE000907FD1F4D12C1EC090E0389FF001399F25
:102CF000F00D1124EA57FE4F6181651306C0608113
:102D0000641303C06281E6120FC001968770D5CFAD
:102D10009F7011F0882331F3805E883018F3C8016A
:102D20000E94BA14FD2CA1CFEE2009F49ECF809111
:102D3000BB0181608093BB01F12C97CF351306C096
:102D4000241304C0D801EE2009F49CC04D875E878F
:102D50008D859E850E94FC14882309F4D2C0EE2044
:102D600009F4CFC08091BB01803270F02091B60190
:102D70003091B70138872F831986DB86CA868C8706
:102D8000CE0107960E94BA1486E0F801A6EBB1E0E6
:102D900001900D928A95E1F70E946B150E945D15D6
:102DA000FF24F39462CF911115C07C2DD98AC88A73
:102DB0006E2D89890E941D1586EB91E00E94BA1440
:102DC00086E0E6EBF1E0DF011D928A95E9F70E94CB
:102DD0005D154BCF351312C0241310C0E1100EC087
:102DE000F8018583C8010E94BA14E6EBF1E086E0A1
:102DF000DF011D928A95E9F7FB2C37CF4D875E875F
:102E00008D859E850E94FC14882309F47AC0EE20EB
:102E100009F477C08091BB01803208F4B5CF2091CE
:102E2000B6013091B7013A8329831B82DD82CC82BF
:102E30008E83CE010196A6CFC816D90688F1F60179
:102E4000E81BF90BCF01F12C883C910508F047C035
:102E5000FE2CEE2009F455C0351330C024132EC0CB
:102E60008091BB0180FD21C0982F907FF1F0D801A7
:102E700015968C931597903F39F0982F907F905F1F
:102E80008F70892B15968C93C8010E94BA1486E026
:102E9000F801A6EBB1E001900D928A95E1F797CF8A
:102EA000809590958C0D9D1DCECF86E0F801A6EB08
:102EB000B1E001900D928A95E1F7D7CE4D875E87FC
:102EC0008D859E850E94FC1481115ECF8091BB018F
:102ED00081608093BB01C8010E94BA14C6CE7C2DCC
:102EE000D98AC88A6E2D89890E941D1569CFEE2066
:102EF00041F04D875E878D859E850E94FC1481116F
:102F000043CFC8010E94BA144BCF81E08E25CBCEAF
:102F10001F93CF93DF93CDB7DEB72C970FB6F894FE
:102F2000DEBF0FBECDBF4F83588769877A878B87F7
:102F30009C87CE0107960E94CF15882369F08A8569
:102F40009B85892B39F04F815885842F85238F3FAE
:102F500009F071C016E05FC086E0FE013796DE0121
:102F6000119601900D928A95E1F78A859B85892BB0
:102F700089F388859F8189238F3F61F320918501A3
:102F800030E0C90101968770992740918401481764
:102F9000190671F40E94F8141092850110928401B0
:102FA00086E0E6EBF1E0DF011D928A95E9F7D2CFEA
:102FB00096E0929FD001939FB00D1124AA57BE4F67
:102FC000FE01319601900D929A95E1F7809385016B
:102FD0000E943C15BFCF819FC00111248A579E4F8C
:102FE0000E94CF158823E9F0E09184011E9FF00133
:102FF0001124EA57FE4F408151816281738184819F
:1030000095810E942C158091840190E00196877033
:10301000992780938401809184019091850189137F
:10302000DACF2C960FB6F894DEBF0FBECDBFDF917E
:10303000CF911F91089569857A858B859C850E9423
:103040002C1588CFEF92FF920F931F93CF93DF93AE
:103050008C01892B81F0F12CEE24E394E801219678
:10306000F8018491843770F4843008F05FC08130B7
:10307000B1F08230A1F1DF91CF911F910F91FF90BC
:10308000EF900895853709F44CC008F43DC09CE7E3
:10309000980F903780F78F770E945F1249C00E5FBC
:1030A0001F4FFE01849190E2980F983060F4877072
:1030B000FE2D01C0FF0F8A95EAF78F2F0E94671B34
:1030C0000E948D1B02C00E9483118F2D815030F20F
:1030D000EFE9FFE03197F1F700C00000F7CF0E5F96
:1030E0001F4FFE01849190E2980F983050F4877042
:1030F000FE2D01C0FF0F8A95EAF78F2F0E946D1BEE
:10310000DFCF0E945F12E1CF0E5F1F4FFE01C4911F
:10311000C150D8F28FE99FE00197F1F700C000009D
:10312000F7CF0E5F1F4FFE01F490CFCF0E948311A7
:103130008E01CBCF08956093DE017093DF01809301
:10314000E0019093E1010C94E4140F931F9300911C
:10315000DE011091DF012091E0013091E101DC01FD
:10316000CB01802B912BA22BB32B8093DE0190936C
:10317000DF01A093E001B093E1011F910F910C9446
:10318000E4140F931F930091DE011091DF01209151
:10319000E0013091E101DC01CB0180239123A223E6
:1031A000B3238093DE019093DF01A093E001B093FD
:1031B000E1011F910F910C94E4140F931F93009160
:1031C000DE011091DF012091E0013091E101DC018D
:1031D000CB0180279127A227B3278093DE0190930C
:1031E000DF01A093E001B093E1011F910F910C94D6
:1031F000E4141092DA011092DB011092DC011092BB
:10320000DD010C94E41441E050E060E070E004C0A3
:10321000440F551F661F771F8A95D2F74093DA0136
:103220005093DB016093DC017093DD010C94E41496
:1032300041E050E060E070E004C0440F551F661F9D
:10324000771F8A95D2F78091DA019091DB01A091E6
:10325000DC01B091DD01842B952BA62BB72B80933D
:10326000DA019093DB01A093DC01B093DD010C94B3
:10327000E41441E050E060E070E004C0440F551FEA
:10328000661F771F8A95D2F7409550956095709587
:103290008091DA019091DB01A091DC01B091DD0118
:1032A00084239523A623B7238093DA019093DB012F
:1032B000A093DC01B093DD010C94E41441E050E0F4
:1032C00060E070E004C0440F551F661F771F8A95A9
:1032D000D2F78091DA019091DB01A091DC01B091ED
:1032E000DD0184279527A627B7278093DA019093DD
:1032F000DB01A093DC01B093DD010C94E4140F9387
:103300001F930091DA011091DB012091DC013091D3
:10331000DD01DC01CB01802B912BA22BB32B809301
:10332000DA019093DB01A093DC01B093DD011F91E2
:103330000F910C94E4140F931F930091DA011091F4
:10334000DB012091DC013091DD01DC01CB01802328
:103350009123A223B3238093DA019093DB01A093FE
:10336000DC01B093DD011F910F910C94E4140F93D5
:103370001F930091DA011091DB012091DC01309163
:10338000DD01DC01CB0180279127A227B3278093A1
:10339000DA019093DB01A093DC01B093DD011F9172
:1033A0000F910C94E41408952CE0929F800D112449
:1033B000982F977041E001C0440F9A95EAF78695DF
:1033C0008695869595E0899FF0011124E454FE4F7F
:1033D00090E080E070E05191DF0111979B01082E91
:1033E00002C0369527950A94E2F72170219525278A
:1033F000242325272C9301968530910561F70895A4
:103400002CE0929F800D1124982F977086958695B9
:10341000869525E0829FF0011124E454FE4F50E090
:1034200040E080E0219130E0092E02C036952795DA
:103430000A94E2F721703327042E01C0220F0A9468
:10344000EAF7822B4F5F5F4F4530510559F70895DA
:10345000BF92CF92DF92EF92FF920F931F93CF9381
:10346000DF938C01C090DA01D090DB01E090DC01A9
:10347000F090DD018091DE019091DF01A091E001EB
:10348000B091E101C82AD92AEA2AFB2ACFE1D0E08B
:10349000BC2ED701C6010C2E04C0B695A7959795F2
:1034A00087950A94D2F780FD0EC0219788F7B12C3A
:1034B0008B2DDF91CF911F910F91FF90EF90DF90B7
:1034C000CF90BF900895B8018C2F0E94A607019756
:1034D00061F3EECFCF93DF93EC010E94281ABE0177
:1034E000DF91CF910C94A6071F93CF93DF93EB014D
:1034F00090918301992331F0CB01DF91CF911F91FE
:103500000C946A1A882379F0CB010E94281A182F8C
:10351000682FCE010E94D419BE01812FDF91CF9177
:103520001F910C94A607CB010E94001A182FF4CF0C
:103530008091E20185958595859508958091E201B8
:103540008770089598E0899F90011124622B609301
:10355000E2010C9418199091E201809589238093DF
:10356000E201282F277061F4282F082E000C330B5E
:103570009217130629F08595859585950C94391930
:1035800008959091E201977081E009F480E0089538
:10359000909113019923E1F09091520297FF18C086
:1035A000E82FE695E695E695EF3139F12091010196
:1035B00030910201E20FF32FF11D877021E030E01E
:1035C00001C0220F8A95EAF78181822B81830895B9
:1035D0002091010130910201F90132969FEF40E004
:1035E0005191851751F09F3F19F4511101C0942F4B
:1035F0004F5F4E31A9F79F3F09F40895290F311D00
:1036000097FD3A95F90182830895909113019923CA
:10361000F1F09091520297FF1AC0E82FE695E695D7
:10362000E695EF3129F12091010130910201E20F7D
:10363000F32FF11D282F277081E090E001C0880F43
:103640002A95EAF7809591818923818308952091B5
:10365000010130910201F9013296205E3F4F9191B4
:10366000891303C0DF0111971C92E217F307B9F722
:10367000089581E090E0E0910101F0910201E80FEE
:10368000F91F1082019680329105A9F70895909153
:103690000602892B80930602089580959091060278
:1036A000982390930602089510920602089590912F
:1036B0000502892B8093050208958095909105025B
:1036C0009823909305020895109205020895909111
:1036D0000402892B8093040208958095909104023E
:1036E0009823909304020895109204020895809301
:1036F000E30108951092E3010895209101013091B2
:103700000201F9013196205E3F4F80E091919111C5
:103710008F5FE217F307D1F70895E0910101F0916F
:103720000201809106028083E0910101F091020183
:10373000808190910502892B8083E0910101F091B5
:103740000201808190910402892B80839091E30192
:10375000992361F0E0910101F09102018081892BB0
:1037600080830E947D1B81111092E30180910101F1
:10377000909102010C9452106DEE7EEF90E080E08B
:103780000E94E12860E082E090E00E94C32860E0AF
:1037900083E090E00E94C32860E084E090E00E9413
:1037A000C32860E085E090E00E94C32840E050E03C
:1037B000BA0188E090E00C94D52890E080E00E9467
:1037C000BD2821E08D3E9E4F09F020E0822F089514
:1037D00082E090E00C94AF28682F82E090E00C9497
:1037E000C32883E090E00C94AF28682F83E090E03A
:1037F0000C94C32884E090E00C94AF28682F84E0F8
:1038000090E00C94C32880915802843039F11092D2
:10381000080288E190E020E40FB6F894A895809320
:1038200060000FBE2093600080E00E94870783B78E
:10383000817F846083BF83B7816083BF78948895DC
:1038400083B78E7F83BF0FB6F894A89580916000F0
:10385000886180936000109260000FBE0895089503
:103860000895CF930E942F1C0E944D0A0E94301C85
:10387000C0E08C2F0E94120B892B31F4CF5FC43033
:10388000C1F780E0CF91089581E0FCCF0E94F81449
:103890000E9446100C9487071F921FB61F92112496
:1038A0008F939F93AF93BF9380910802811113C0B0
:1038B00080914E0290914F02A0915002B09151021E
:1038C0004196A11DB11D80934E0290934F02A0938B
:1038D0005002B0935102BF91AF919F918F911F9071
:1038E0001FBE1F90189582E084BD93E095BD9AEFAE
:1038F00097BD80936E0008952FB7F89480914E0283
:1039000090914F02A0915002B09151022FBF0895A3
:10391000CF92DF92EF92FF920F931F932FB7F894FD
:1039200040914E0250914F026091500270915102AD
:103930002FBF6A017B01EE24FF248C0130E020E0E0
:10394000C016D106E206F30650F0481B590BCA0117
:103950001F910F91FF90EF90DF90CF90089541500D
:103960005109F3CF1F921FB61F9211248F939F937B
:10397000AF93BF9380914E0290914F02A09150025D
:10398000B09151020196A11DB11D80934E029093FA
:103990004F02A0935002B0935102BF91AF919F91FB
:1039A0008F911F901FBE1F9018950E945D24F89460
:1039B0002FEF87EA91E6215080409040E1F700C068
:1039C000000087E090EBDC0180936102909362023B
:1039D000A0936302B093640288E19CE00FB6F89470
:1039E000A895809360000FBE90936000FFCFAF92C8
:1039F000BF92CF92DF92EF92FF920F931F93CF93DC
:103A0000C0E0CC24C394D12CE82EF12C8C2F0E9442
:103A1000120B5C0110E000E0C601002E02C0880F0E
:103A2000991F0A94E2F78A219B21892B99F40F5F51
:103A30001F4F0C30110581F7CF5FC43039F780E09C
:103A4000CF911F910F91FF90EF90DF90CF90BF909B
:103A5000AF900895602F7C2F80E00E948A07E816BF
:103A6000F90629F781E0ECCFCF93C82F8CE20E94B2
:103A7000F71C882321F08C2FCF910C94F71C80E049
:103A8000CF910895CF930E94DD1B811102C00E9447
:103A9000BC1BC5E608C00E944D0A8FE39CE9019754
:103AA000F1F700C00000C150B1F789E20E94341D57
:103AB0008111EFC08AE20E94341D81110E94BC1B5B
:103AC00085E00E94341D81110E94D51C0E94E81BD4
:103AD0008093070287E00E94341D882371F08BE1F8
:103AE0000E94341D882309F4B1C090910702892FE8
:103AF0008D7F91FF826080930702809107020E9470
:103B0000EC1B0E94FA1B90E09093530280935202A8
:103B100080EE0E94341D882341F090915202892F3B
:103B20008E7F90FF81608093520289E30E94341D52
:103B3000882341F090915202892F8D7F91FF8260FE
:103B40008093520282EE0E94341D882341F09091AE
:103B50005202892F8B7F92FF84608093520286EEFF
:103B60000E94341D882341F090915202892F877F53
:103B700093FF88608093520283EE0E94341D882355
:103B800041F090915202892F8F7E94FF8061809343
:103B9000520285E30E94341D882341F09091520225
:103BA000892F8F7D95FF80628093520281E30E946E
:103BB000341D882341F090915202892F8F7B96FF0C
:103BC00080648093520281E10E94341D882341F079
:103BD00090915202892F97FB87F980588093520267
:103BE000809152020E94FE1B87E20E94341DC82F62
:103BF0008EE10E94341D8111C2608FE10E94341D4C
:103C00008111C46080E20E94341D8111C86081E28C
:103C10000E94341D8111C06182E20E94341D811115
:103C2000C06283E20E94341D8111C06484E20E945C
:103C3000341D882341F1C0688C2F0E94F51B6C2F26
:103C400070E090E080E0CF910C949B188EE00E9491
:103C5000341D882339F090910702892F8B7F92FFC2
:103C6000846049CF80E10E94341D9091070288232F
:103C700029F0892F877F93FF88603DCF892F8E7F22
:103C800090FF816038CFC111D7CF0E94F11B682F00
:103C9000D7CFCF91089580910B0280FF12C0609121
:103CA000060185E0689FB0011124759567957595AB
:103CB000679560387105A8F561157105A1F1862F2A
:103CC000089581FF09C06091060185E0689FB001F9
:103CD000112475956795EDCF6091060182FD0AC0AC
:103CE00080910C028823D1F090910501609106012A
:103CF000891728F085E0689FB0011124DACF869FEC
:103D0000B001112485E0869F9001879F300D11241A
:103D1000692F70E0C9010E949528CBCF65E070E063
:103D2000CECF8FE7089581E0089580910B0280FF48
:103D30000CC06091040170E0759567957595679565
:103D40006115710549F1862F089581FF06C06091C4
:103D5000040170E075956795F3CF6091040182FDD1
:103D60000BC090910C029923A1F060910301809106
:103D70000401961738F0682F70E06038710500F381
:103D80008FE70895899FC001112470E00E94952853
:103D9000F4CF61E070E0D7CF81E00895803F31F447
:103DA0000E944B1E819580930F020895813F19F464
:103DB0000E944B1EF8CF823F31F40E944B1E81952A
:103DC00080930E020895833F19F40E944B1EF8CF92
:103DD000893F29F40E94951E8093100208958A3F1E
:103DE00021F40E94951E8195F7CF8B3F31F40E94FC
:103DF000951E81958093110208958C3F19F40E94BD
:103E0000951EF8CF843F31F480910D02816080933C
:103E10000D020895853F21F480910D028260F7CF55
:103E2000863F21F480910D028460F1CF873F21F419
:103E300080910D028860EBCF883F21F480910D02C4
:103E40008061E5CF8D3F31F480910B0281608093DA
:103E50000B0208958E3F21F480910B028260F7CF10
:103E60008F3FB9F780910B028460F1CF90910E02E1
:103E7000803F41F480910F0287FD10920F02992339
:103E800071F00895813F29F480910F021816ACF368
:103E9000F6CF823F81F497FFF2CF10920E0280910D
:103EA0000F0290911002892B90911102892B49F7F2
:103EB00010920C020895833F19F4191674F3DFCFA2
:103EC000893F39F4809110021816CCF61092100236
:103ED000D6CF8A3F29F48091100287FFD0CFF6CF4A
:103EE0008B3F39F48091110287FFC9CF10921102E4
:103EF000C6CF8C3F29F4809111021816BCF3BFCFB6
:103F0000843F31F480910D028E7F80930D02B7CFF4
:103F1000853F21F480910D028D7FF7CF863F21F4FC
:103F200080910D028B7FF1CF873F21F480910D02AC
:103F3000877FEBCF883F21F480910D028F7EE5CF04
:103F40008D3F31F480910B028E7F80930B0297CFCF
:103F50008E3F21F480910B028D7FF7CF8F3F09F0C8
:103F60008ECF80910B028B7FF0CF8DE092E00E948C
:103F70005D100E947C1C90930A02809309020895B0
:103F80001F93CF93DF938091090290910A020E94C0
:103F9000881CAC0190910C022091070130E0911136
:103FA00006C0209108018AE0289F90011124421741
:103FB000530778F020910E02C0910F02D0911002A9
:103FC00010911102211109C08C2F8D2B812B09F02A
:103FD00074C0DF91CF911F9108959F3F19F09F5FAB
:103FE00090930C02121624F40E944B1E80930E0232
:103FF00080910E0287FF05C00E944B1E8195809321
:104000000E021C1624F40E944B1E80930F02809116
:104010000F0287FF05C00E944B1E819580930F02FF
:1040200060910E02662331F1C0910F02CC2311F191
:10403000062E000C770B880B990B0E94882723E330
:1040400033E343E35FE30E94EC270E945027609331
:104050000E026C2FCC0F770B880B990B0E948827D0
:1040600023E333E343E35FE30E94EC270E945027FE
:1040700060930F021D1624F40E94951E8093100277
:104080008091100287FF05C00E94951E8195809344
:104090001002111624F40E94951E80931102809143
:1040A000110287FF05C00E94951E81958093110221
:1040B000DF91CF911F910C94B51F9F3F09F08FCFD7
:1040C000A0CF85E0EDE0F2E0DF011D928A95E9F7EF
:1040D00010920C0210920B02089580913202089502
:1040E000CF93DF9300D00F92CDB7DEB79C018091C4
:1040F0005802843019F593E099833B832A83909387
:10410000E9008FEF9091E800815095FD06C095ED94
:104110009A95F1F700008111F5CF8091E80085FFB5
:104120000DC050E040E063E070E0CE0101960E94D7
:10413000CF228091E8008E778093E8000F900F9057
:104140000F90DF91CF910895CF93DF9300D00F921E
:10415000CDB7DEB720915802243031F522E0298313
:10416000805891099B838A8383E08093E9008FEFD5
:104170009091E800815095FD06C095ED9A95F1F774
:1041800000008111F5CF8091E80085FF0DC050E05F
:1041900040E063E070E0CE0101960E94CF22809162
:1041A000E8008E778093E8000F900F900F90DF91DA
:1041B000CF9108959C01809158028430F9F482E0F7
:1041C0008093E9009FEF8091E800915085FD06C043
:1041D00085ED8A95F1F700009111F5CF8091E80007
:1041E00085FF0CC050E040E065E070E0C9010E942E
:1041F000CF228091E8008E778093E8000895CF93D6
:10420000DF93EC01809158028430F1F49091130116
:104210009923E9F09091520297FF19C08093E90029
:104220008FEF9091E800815095FD06C095E19A9539
:10423000F1F700008111F5CF8091E80050E040E0F7
:1042400060E270E085FD1AC0DF91CF91089581E0B2
:104250008093E9008FEF9091E800815095FD06C0B2
:1042600095ED9A95F1F700008111F5CF8091E80066
:1042700085FFEACF50E040E068E070E0CE010E94A8
:10428000CF228091E8008E778093E80080E2FE01E3
:10429000A2E1B2E001900D928A95E1F7D5CF80912D
:1042A0005702811109C00E945D240E94BA248091A6
:1042B000E20084608093E20008951092570208950E
:1042C000089508950C94461C42E061EC81E00E9440
:1042D000DB2342E061EC82E00E94DB2342E061EC00
:1042E00083E00E94DB2342E261EC84E00C94DB2358
:1042F00080915A02833009F455C030F4813071F155
:10430000823009F491C008958A3009F47DC08B3061
:1043100009F463C0893009F044C0809159028132A8
:1043200009F03FC080915D0290915E02009711F00C
:104330000397B9F58091E800877F8093E80080912A
:10434000E80082FF2AC08091F100809332028091C0
:10435000E8008B778093E8000C940F248091590239
:10436000813AF9F48091E800877F8093E80080919A
:104370005D0290915E02892B61F460E282E192E03D
:1043800070E00E941E238091E8008B778093E80004
:10439000089560E090E080E0F3CF809158028111B1
:1043A000CECF089580915902813AD9F780915D026C
:1043B00090915E02892BA9F78091E800877F809316
:1043C000E8008091E80080FFFCCF8091130180938A
:1043D000F1008091E8008E77BDCF80915902813243
:1043E00001F780915D0290915E02892BD1F6809158
:1043F000E800877F8093E8000E940F2480915B0291
:10440000809313010C94F81480915902813249F67B
:104410008091E800877F8093E8000E940F248091BC
:104420005C0280933302089580915902813A09F029
:10443000B8CF8091E800877F8093E8008091E80002
:1044400080FFFCCF80913302C2CF84B7877F84BFC7
:104450000FB6F894A8958091600088618093600001
:10446000109260000FBE80E880936100109261009E
:104470000E9495100E945D240E94BA248091E2005F
:1044800084608093E20078940E9434270E94971001
:1044900089E091E00E94411080915802853029F016
:1044A0000E949F100E940E10F7CF0E94031C809163
:1044B0005602882389F30E94311C882369F30E94E5
:1044C000B922EACF292F33272330310521F168F4AF
:1044D0002130310509F443C02230310509F444C0CC
:1044E00090E080E030E020E026C02132310551F13B
:1044F00022323105A9F7643098F770E0FB01EE0F26
:10450000FF1FE85DFE4F208131816C5D7E4FFB0116
:10451000808190E010C099278130910581F000974B
:1045200029F00297E9F6EEE7F9E002C0EAEAF9E0DD
:10453000849190E09F01FA01318320830895E2E99C
:10454000F9E0F6CF643060F6E62FF0E0EE0FFF1FE3
:10455000E05DFE4F2081318189E090E0ECCF82E187
:1045600090E02BE13AE0E7CF8DE690E02EEA39E0EB
:10457000E2CF80E189BD82E189BD09B400FEFDCFB3
:104580008091D8008F7D8093D8008091E000826078
:104590008093E0008091E00081FDFCCF0895AF9210
:1045A000BF92CF92DF92FF920F931F93CF93DF932F
:1045B0006C01EB018A010E942E24F82E811123C088
:1045C0000115110539F0F80180819181C81BD90BC3
:1045D000C80ED91EB12CA12C2097A9F08091E8001B
:1045E00085FD22C08091E8008E778093E800011558
:1045F0001105A1F0F80180819181A80EB91EB18248
:10460000A08285E0F82E8F2DDF91CF911F910F9121
:10461000FF90DF90CF90BF90AF9008950E942E241E
:104620008823D1F2F82EEFCFF60181916F018093AC
:10463000F1002197FFEFAF1ABF0ACECFFC018091A6
:104640005F029091600286179707A0F061157105CF
:1046500029F49091E8009E779093E80090E061152E
:10466000710551F4911108C08091E80082FF34C0B7
:1046700080E00895BC01F2CF809158028823C1F1F7
:104680008530C1F18091E80083FD30C08091E80061
:1046900082FDEACF8091E80080FFE1CF8091F300B6
:1046A0002091F200382F6115710519F0283031057D
:1046B00058F091E02830310509F090E02091E800B1
:1046C0002E772093E800CBCF81918093F100615049
:1046D00071092F5F3F4FE7CF80915802882341F047
:1046E000853041F08091E80083FFBECF81E00895DE
:1046F00082E0089583E00895FC0180915F0290912B
:10470000600286179707A0F06115710529F4809162
:10471000E8008E778093E80090E06115710551F410
:10472000911108C08091E80082FF35C080E00895B3
:10473000BC01F2CF809158028823C9F18530C9F1BC
:104740008091E80083FD31C08091E80082FDEACFCE
:104750008091E80080FFE1CF8091F3002091F2008A
:10476000382F6115710519F02830310558F091E0A6
:104770002830310509F090E08091E8008E77809331
:10478000E800CBCF84918093F1003196615071099C
:104790002F5F3F4FE6CF80915802882341F085304C
:1047A00041F08091E80083FFBDCF81E0089582E071
:1047B000089583E00895982F973028F08F708093A4
:1047C000E90081E008959093E900242F762F50E0CE
:1047D000981731F07091EC002091ED005091F000AD
:1047E00021FD02C09F5FE8CF3091EB003E7F309308
:1047F000EB003091ED003D7F3093ED003091EB0008
:1048000031603093EB007093EC002093ED005093F7
:10481000F0002091EE0027FDE5CF80E00895809123
:10482000590287FF13C08091E80082FF06C0809183
:10483000E8008B778093E80004C0809158028111D2
:10484000F2CF0895809158028823D9F38091E8002F
:1048500080FFF8CF8091E8008E77ECCF2091E400C4
:104860003091E50085E6A9019091EC0090FF06C02B
:104870009091E80090FF06C080E008959091E800D4
:1048800092FDFACF90915802992389F0953089F0E2
:104890009091EB0095FD0FC02091E4003091E50070
:1048A0004217530709F38150F1F684E0089582E03E
:1048B000089583E0089581E008950E94CB240E942A
:1048C000D324E0EEF0E0808181608083E8EDF0E0C9
:1048D00080818F77808319BCA7EDB0E08C918E7FAB
:1048E0008C9380818F7E80831092570208950F935E
:1048F0001F93CF93DF930E94CB240E94D324C8ED53
:10490000D0E088818F7788838881806888838881D8
:104910008F7D888319BC1092580210925402109215
:1049200056021092550200EE10E0F80180818B7F54
:10493000808388818160888342E060E080E00E941B
:10494000DB23E1EEF0E080818E7F8083E2EEF0E019
:10495000808181608083808188608083F80180818C
:104960008E7F8083888180618883DF91CF911F91C2
:104970000F910895E8EDF0E080818F7E8083E7ED70
:10498000F0E080818160808384E082BF81E0809359
:1049900057020C947724E8EDF0E080818E7F8083CD
:1049A0001092E20008951092DA001092E10008954A
:1049B0001F920F920FB60F9211242F933F934F9394
:1049C0005F936F937F938F939F93AF93BF93EF9377
:1049D000FF938091E10082FF0BC08091E20082FF93
:1049E00007C08091E1008B7F8093E1000E94332714
:1049F0008091DA0080FF19C08091D80080FF15C037
:104A00008091DA008E7F8093DA008091D90080FF58
:104A100094C080E189BD82E189BD09B400FEFDCF6B
:104A200081E0809358020E944F218091E10080FF35
:104A300019C08091E20080FF15C08091E2008E7F56
:104A40008093E2008091E20080618093E200809197
:104A5000D80080628093D80019BC85E0809358020A
:104A60000E9461218091E10084FF29C08091E200D1
:104A700084FF25C080E189BD82E189BD09B400FEC3
:104A8000FDCF8091D8008F7D8093D8008091E10088
:104A90008F7E8093E1008091E2008F7E8093E20020
:104AA0008091E20081608093E2008091540288232B
:104AB00009F449C084E0809358020E9462218091E9
:104AC000E10083FF29C08091E20083FF25C080912F
:104AD000E100877F8093E10082E08093580210928A
:104AE00054028091E1008E7F8093E1008091E2008A
:104AF0008E7F8093E2008091E20080618093E200EB
:104B000042E060E080E00E94DB238091F00088605A
:104B10008093F0000E946021FF91EF91BF91AF91CF
:104B20009F918F917F916F915F914F913F912F91C5
:104B30000F900FBE0F901F90189519BC109258023D
:104B40000E945D2172CF8091E30087FD02C081E069
:104B5000B2CF83E0B0CF1F920F920FB60F92112405
:104B60002F933F934F935F936F937F938F939F9375
:104B7000AF93BF93CF93EF93FF93C091E900CF70B2
:104B80008091EC001092E9008091F000877F809383
:104B9000F00078940E94E7251092E9008091F000DF
:104BA00088608093F000C093E900FF91EF91CF916E
:104BB000BF91AF919F918F917F916F915F914F9135
:104BC0003F912F910F900FBE0F901F9018951F933C
:104BD000CF93DF93CDB7DEB7AA970FB6F894DEBFB9
:104BE0000FBECDBF89E592E02091F100FC01219339
:104BF000CF01F2E081369F07B9F70E9478218091BA
:104C0000E80083FF82C08091590290915A029A3045
:104C100008F07BC0E92FF0E0E25CF64D0C94A92887
:104C2000803881F0823809F070C080915D028F7009
:104C30008093E9008091EB0085FB882780F9109232
:104C4000E90006C080915502909156029111826050
:104C50009091E800977F9093E8008093F100109284
:104C6000F1008091E8008E77F9C0882309F4E6C04E
:104C7000823009F04AC080915B028111EAC08091C4
:104C80005D028F7009F441C08093E9002091EB0030
:104C900020FFDFC0933031F48091EB00806280937D
:104CA000EB00D7C09091EB0090619093EB0021E076
:104CB00030E001C0220F8A95EAF72093EA001092B3
:104CC000EA008091EB008860EACF81111EC010914C
:104CD0005B021F778091E3008078812B8093E30053
:104CE0008091E800877F8093E8000E940F248091E4
:104CF000E80080FFFCCF8091E30080688093E300B0
:104D000082E0111183E0809358028091E80083FFD4
:104D10000AC08091E800877F8093E8008091EB00D3
:104D200080628093EB00AA960FB6F894DEBF0FBEA8
:104D3000CDBFDF91CF911F9108958058823028F721
:104D400080915B0290915C028C3D23E09207A1F57B
:104D500083E08A838AE289834FB7F894DE01139651
:104D600020E03EE051E2E32FF0E050935700E49161
:104D700020FF03C0E295EF703F5FEF708E2F90E051
:104D8000EA30C0F0C7968D939D932F5F243159F779
:104D90004FBF8091E800877F8093E8006AE270E06F
:104DA000CE0101960E941E238091E8008B778093AC
:104DB000E800ABCFC096E7CFAE014F5F5F4F609189
:104DC0005D020E946222BC01892B09F49ECF909162
:104DD000E800977F9093E80089819A810E947C2364
:104DE000E3CF803809F091CF8091E800877F8093EE
:104DF000E800809154028093F10033CF811185CF78
:104E000090915B02923008F080CF8091E800877F1C
:104E10008093E800909354020E940F2480915402E2
:104E2000882311F084E005C08091E30087FDFACF6C
:104E300081E0809358020E94642167CF80915B02D9
:104E4000813009F062CF81E0933009F080E08093F7
:104E500056021092E9008091E800877F8093E80075
:104E60000E940F2452CF0895CF9380915802882337
:104E700099F0C091E900CF708091EC0080FD0EC0E8
:104E800080E0C82B1092E9008091E80083FD0E9429
:104E9000E725CF70C093E900CF91089580E8F1CF66
:104EA0000E9457276894B1110C94E62708950E9438
:104EB000CB2788F09F5798F0B92F9927B751B0F0BA
:104EC000E1F0660F771F881F991F1AF0BA95C9F78E
:104ED00014C0B13091F00E94E527B1E008950C9420
:104EE000E527672F782F8827B85F39F0B93FCCF3D3
:104EF000869577956795B395D9F73EF4909580950B
:104F0000709561957F4F8F4F9F4F0895E89409C02A
:104F100097FB3EF490958095709561957F4F8F4FEC
:104F20009F4F9923A9F0F92F96E9BB279395F69502
:104F3000879577956795B795F111F8CFFAF4BB0F80
:104F400011F460FF1BC06F5F7F4F8F4F9F4F16C0E4
:104F5000882311F096E911C0772321F09EE8872F6E
:104F6000762F05C0662371F096E8862F70E060E02A
:104F70002AF09A95660F771F881FDAF7880F9695A3
:104F8000879597F9089557FD9058440F551F59F08C
:104F90005F3F71F04795880F97FB991F61F09F3F26
:104FA00079F087950895121613061406551FF2CF4F
:104FB0004695F1DF08C0161617061806991FF1CF9F
:104FC00086957105610508940895E894BB276627C6
:104FD0007727CB0197F908950E94FF270C9470283A
:104FE0000E94622838F00E94692820F0952311F071
:104FF0000C9459280C945F2811240C94E6270E94E5
:10500000C32770F3959FC1F3950F50E0551F629F22
:10501000F001729FBB27F00DB11D639FAA27F00D11
:10502000B11DAA1F649F6627B00DA11D661F829F38
:105030002227B00DA11D621F739FB00DA11D621F1D
:10504000839FA00D611D221F749F3327A00D611D3A
:10505000231F849F600D211D822F762F6A2F11241C
:105060009F5750409AF0F1F088234AF0EE0FFF1F4F
:10507000BB1F661F771F881F91505040A9F79E3FA6
:10508000510580F00C9459280C94E6275F3FE4F317
:10509000983ED4F3869577956795B795F795E795FC
:1050A0009F5FC1F7FE2B880F911D9695879597F905
:1050B000089597F99F6780E870E060E008959FEF9A
:1050C00080EC089500240A9416161706180609069F
:1050D000089500240A94121613061406050608956E
:1050E000092E0394000C11F4882352F0BB0F40F4F6
:1050F000BF2B11F460FF04C06F5F7F4F8F4F9F4F36
:105100000895AA1BBB1B51E107C0AA1FBB1FA6170E
:10511000B70710F0A61BB70B881F991F5A95A9F760
:1051200080959095BC01CD01089597FB072E16F44C
:10513000009407D077FD09D00E94812807FC05D094
:105140003EF4909581959F4F0895709561957F4F9E
:105150000895EE0FFF1F0590F491E02D0994F99941
:10516000FECF92BD81BDF89A992780B50895A6E13A
:10517000B0E044E050E00C94E928A8E1B0E042E05F
:1051800050E00C94E928262FF999FECF92BD81BDFD
:10519000F89A019700B4021639F01FBA20BD0FB675
:1051A000F894FA9AF99A0FBE08950396272F0E9451
:1051B000C4280E94C328252F0E94C428242F0C94A1
:1051C000C4280196272F0E94C4280C94C328DC0110
:1051D000CB01FC01F999FECF06C0F2BDE1BDF89A02
:1051E000319600B40D9241505040B8F70895F894AC
:1051F000FFCFF206FE06020706070A070E07120790
:1052000016071A071E07220726072A072E07320746
:1052100036073A073E07EF12EF123F133F13811391
:105220009D131C131C13A8131C13401440149E142C
:105230001C131C13A7144A144A144A144A144A147F
:105240004A144A144A144A144A144A144A144A146E
:105250004A144A144A14571465146C1473147D14B8
:105260000915091512151215141512151215121516
:1052700009150915191512151215191510263526B7
:1052800085263526852665269D268526F126FE2639
:10529000FFE4012808140A321E6D20FF20DA20A442
:1052A00020702001F4F5F6F73133323635C63497E5
:1052B00090919466404D3639E90A9C0A660A2D0A97
:0852C000C009D909F2090B0A2B
:0200000400807A
:040261000000000099
:00000001FF
