:100000000C9495050C94DC050C94DC050C94DC0533
:100010000C94DC050C94DC050C94DC050C94DC05DC
:100020000C94DC050C94DC050C945A250C942D26BC
:100030000C94C41C0C94DC050C94DC050C94DC05BD
:100040000C94DC050C94DC050C94DC050C94DC05AC
:100050000C94DC050C942C1D0C94DC050C94DC0534
:100060000C94DC050C94DC050C94DC050C94DC058C
:100070000C94DC050C94DC050C94DC050C94DC057C
:100080000C94DC050C94DC050C94DC050C94DC056C
:100090000C94DC050C94DC050C94DC050C94DC055C
:1000A0000C94DC050C94DC050C94DC05010D020DB0
:1000B00001080208012C022C011602160104010C91
:1000C0000204020C0104012C011602040216022C87
:1000D000011301040213011602040216012C022C62
:1000E0000117011502170215011201130212021362
:1000F000012C0107022C01080207012C0208022C26
:10010000011402140118021801120212010C020C4F
:10011000012C0117022C021701180218012C022CC5
:10012000011901080219020801180218011B021B1B
:10013000012C022C01130213010402040115021503
:10014000010F020F010801150208012C0108021518
:10015000022C020801110211012C0109022C0104D8
:100160000209010C0204020C0117012C0217022CD7
:10017000002B0014001A000800150017001C0018BE
:10018000000C00120013002A0029000400160007CA
:100190000009000A000B000D000E000F00330034B0
:1001A00000E1001D001B00060019000500110010F1
:1001B0000036003700380028003270E000E200E32B
:1001C00000015100002C0002510070510052004FFC
:1001D0000035021E021F02200221022202230224F5
:1001E0000225022602270201004C003A003B003C97
:1001F000003D003E003F002D022E022F0230023152
:10020000020100400041004200430044004500322A
:100210000264024A004D00010001000100010001DA
:10022000000100000003510100AB00AA00A900AECC
:100230000035001E001F00200021002200230024A2
:100240000025002600270001004C003A003B003C3E
:10025000003D003E003F002D002E002F00300031F9
:1002600000010040004100420043004400450032CC
:100270000064004B004E000100010001000100017C
:10028000000100000001000100AB00AA00A900AEBF
:100290000000703270307031703370010001000165
:1002A0000001000100010001003470357036703724
:1002B00070387039703A703B700100010001000124
:1002C0000001000100010001000100010001000126
:1002D00000010001000100010000510100010001C6
:1002E0000001000000010001000100010001000107
:1002F00000010001000100010001000100010001F6
:1003000000010001000100010001000100010001E5
:1003100000010001000100010001000100010001D5
:1003200000010001000100010001000100010001C5
:1003300000010001000100010001000100010001B5
:1003400000010000000100010001000100010001A6
:100350000001000100010001000100010001000195
:100360000001000100010001000100010001000185
:100370000001000100010001000100010001000175
:100380000001000100010001000100010001000165
:100390000001000100010001000100010001000155
:1003A0000001000000010001000100010001000146
:1003B0000001000100010001000100010001000135
:1003C0000001000100010001000100010001000125
:1003D0000001000100010001000100010001000115
:1003E0000001000100010001000100010001000105
:1003F00000010001000100010001000100010001F5
:1004000000010000000100010001000100010001E5
:1004100000010001000100010001000100010001D4
:1004200000010001000100010001000100010001C4
:1004300000010001000100010001000100010001B4
:1004400000010001000100010001000100010001A4
:100450000001000100010001000100010001000194
:100460000001000000010001000100010001000185
:100470000001000100010001000100010001000174
:100480000001000100010001000100010001000164
:100490000001000100010001000100010001000154
:1004A0000001000100010001000100010001000144
:1004B0000001000100010001000100010001000134
:1004C0000001000000010001000100010001000125
:1004D0000001000100010001000100010001000114
:1004E0000001000100010001000100010001000104
:1004F00000010001000100010001000100010001F4
:1005000000010001000100010001000100010001E3
:1005100000010001000100010001000100010001D3
:1005200000010000000100010001000100010001C4
:1005300000010001000100010001000100010001B3
:1005400000010001000100010001000100010001A3
:100550000001000100010001000100010001000193
:100560000001000100010001000100010001000183
:100570000001000100010001000100010001000173
:100580000001000000010001000100010001000164
:100590000001000100010001000100010001000153
:1005A0000001000100010001000100010001000143
:1005B0000001000100010001000100010001000133
:1005C0000001000100010001000100010001000123
:1005D0000001000100010001000100010001000113
:1005E0000001000000010001000100010001000104
:1005F00000010001000100010001000100010001F3
:1006000000010001000100010001000100010001E2
:1006100000010001000100010001000100010001D2
:1006200000010001000100010001000100010001C2
:1006300000010001000100010001000100010001B2
:1006400000010000000100010001000100010001A3
:100650000001000100010001000100010001000192
:100660000001000100010001000100010001000182
:100670000001000100010001000100010001000172
:100680000001000100010001000100010001000162
:100690000001000100010001000100010001000152
:1006A0000001000000010001000100010001000143
:1006B0000001000100010001000100010001000132
:1006C0000001000100010001000100010001000122
:1006D0000001000100010001000100010001000112
:1006E0000001000100010001000100010001000102
:1006F00000010001000100010001000100010001F2
:1007000000010000000100010001000100010001E2
:1007100000010001000100010001000100010001D1
:1007200000010001000100010001000100010001C1
:1007300000010001000100010001000100010001B1
:1007400000010001000100010001000100010001A1
:100750000001000100010001000100010001000191
:100760000001000000010001000100010001000182
:1007700000643214643214783C1E1E140A05000012
:1007800000000101010202030405050607090A0B26
:100790000C0E0F1112141517191B1D1F21232528CC
:1007A0002A2C2F313436393B3E414346494C4F5277
:1007B00055585A5D6164676A6D707376797C7F8382
:1007C00086898C8F9295989B9EA2A5A7AAADB0B35F
:1007D000B6B9BCBEC1C4C6C9CBCED0D3D5D7DADC7E
:1007E000DEE0E2E4E6E8EAEBEDEEF0F1F3F4F5F654
:1007F000F8F9FAFAFBFCFDFDFEFEFEFFFFFFFFFF2E
:10080000FFFFFEFEFEFDFDFCFBFAFAF9F8F6F5F43B
:10081000F3F1F0EEEDEBEAE8E6E4E2E0DEDCDAD775
:10082000D5D3D0CECBC9C6C4C1BEBCB9B6B3B0ADAA
:10083000AAA7A5A29E9B9895928F8C898683807C7F
:10084000797673706D6A6764615D5A5855524F4C82
:10085000494643413E3B393634312F2C2A28252343
:10086000211F1D1B1917151412110F0E0C0B0A094D
:100870000706050504030202010101000000000053
:100880000000000101010101010101010202020257
:10089000020202020203030303030303030404042A
:1008A00004040405050505050606060606070707F0
:1008B00007080808080909090A0A0A0A0B0B0B0CA1
:1008C0000C0C0D0D0D0E0E0F0F0F1010111111123B
:1008D0001213131414151516161717181819191AB8
:1008E0001A1B1C1C1D1D1E1F1F2020212222232419
:1008F000252526272728292A2B2B2C2D2E2F2F3054
:10090000313233343536363738393A3B3C3D3E3F69
:100910004041424344464748494A4B4C4D4F505151
:100920005253555657585A5B5C5E5F60626364660B
:1009300067696A6C6D6E707173747678797B7C7E92
:100940008081838486888A8B8D8F91929496989AE1
:100950009B9D9FA1A3A5A7A9ABADAFB1B3B5B7B9F7
:10096000BBBDBFC1C4C6C8CACCCFD1D3D6D8DADCD0
:10097000DFE1E4E6E8EBEDF0F2F5F7FAFCFF120355
:100980006B006500790062006F0061007200640016
:100990000000160371006D006B00620075006900B5
:1009A0006C00640065007200000004030904090281
:1009B0006D00040100A0FA09040000010301010018
:1009C0000921110100012240000705810308000AE6
:1009D00009040100010301020009211101000122A3
:1009E0004D000705820308000A0904020001030004
:1009F00000000921110100012236000705830308C8
:100A0000000A09040300010300000009211101008C
:100A100001223900070584032000011201100100A2
:100A2000000008EDFE6060010001020001050109FF
:100A300006A101050719E029E715002501950875AC
:100A40000181020508190129059505750191029595
:100A500001750391010507190029F7150025019576
:100A6000F875018102C005010980A1018502160106
:100A7000002603001A81002A830075109501810069
:100A8000C0050C0901A1018503160100269C021A6C
:100A900001002A9C02751095018100C00501090220
:100AA000A1010901A1000509190129051500250168
:100AB00095057501810295017503810105010930D4
:100AC00009311581257F9502750881060938158140
:100AD000257F950175088106050C0A3802158125C8
:100AE0007F950175088106C0C005010906A10105B1
:100AF0000719E029E7150025019508750181029580
:100B000001750881010508190129059505750191EF
:100B1000029501750391010507190029FF150026AB
:100B2000FF00950675088100C00011241FBECFEF9D
:100B3000DAE0DEBFCDBF04B603FE27C080916102BC
:100B400090916202A0916302B09164028730904B51
:100B5000A740B04BD1F41092610210926202109241
:100B600063021092640214BE84B7877F84BF0FB6FD
:100B7000F894A8958091600088618093600010923D
:100B800060000FBEE0E0F8E3099511E0A0E0B1E0FD
:100B9000E6E0F3E502C005900D92A833B107D9F75E
:100BA00022E0A8E3B1E001C01D92A136B207E1F74F
:100BB0000E94A7220C9481290C940000611107C0A7
:100BC000FC018281882319F08CEA90E0089590E07E
:100BD00080E008950895089581E00895089581E0E2
:100BE00008950C94EC050E9436152FEF84E39CE0E9
:100BF000215080409040E1F700C000000C94511D4E
:100C0000FF920F931F93CF93DF938C01FC01C08160
:100C1000D18180918301811148C08281882309F4A8
:100C20003FC0CE010E949D1AF82E682FCE010E946F
:100C3000431ABE018F2D0E949C07EC01B8010E944F
:100C4000F105882309F478C0B801CE010E94AC09EF
:100C5000882309F471C0C633F0E7DF0709F484C0C4
:100C6000C0F5C53190E7D90728F5C230E0E7DE07C7
:100C700008F099C0C115F0E7DF0709F458C0C1308A
:100C8000D04709F460C081E080933A0180933B0132
:100C9000C801DF91CF911F910F91FF900C94EF0548
:100CA000CE010E94721AF82EC4CFCE010E949D1A66
:100CB000BE01C1CFC43390E7D90709F44EC0C53394
:100CC000D04709F7F80182818823B1F10E94BF0D56
:100CD00033C0CA33F0E7DF0709F457C070F4F801F6
:100CE0008281C833F0E7DF0709F44AC008F443C043
:100CF000882311F10E94030D1FC0CC33E0E7DE070B
:100D000009F4D5C008F448C0CD33D04709F0BBCFB3
:100D1000F8018281882309F4F1C010923B010E94FE
:100D2000F61C909339018093380180E2CDC0F80120
:100D3000828181110E94F30580E0DF91CF911F91A4
:100D40000F91FF900895F80182818823A9F3809183
:100D50000702816080930702EFCFF8018281882328
:100D600059F30E94C90DE8CFF8018281882321F34D
:100D70000E94B40CE1CF8823F9F20E94CC0CDCCFA6
:100D80008823D1F20E94EB0CD7CFF801828188230F
:100D900099F20E941B0DD0CFF8018281882361F265
:100DA0000E94330DC9CFF8018281882309F470CFE6
:100DB0000E94551C811102C00E94341C0E94721CAA
:100DC00090E09093530280935202FE01E350F0476B
:100DD000809152028160E231F105C8F4EE50F94F82
:100DE0000C94332904071007140718071C07200761
:100DF000240728072C073007340738073C0740072B
:100E0000440748074C075007809152028260809344
:100E10005202809152020E94761C0E9436158CCF9D
:100E2000809152028460F3CF809152028860EFCFAC
:100E3000809152028061EBCF809152028062E7CFB5
:100E4000809152028064E3CF809152028068DFCFAC
:100E5000809152028460EACF809152028E7FD7CF78
:100E6000809152028D7FD3CF809152028B7FCFCF62
:100E700080915202877FCBCF809152028F7EC7CF65
:100E8000809152028F7DC3CF809152028F7BBFCF62
:100E9000809152028F77BBCF809152028B7FEACF35
:100EA00090915202892F97FB87F98058B0CFF801B3
:100EB0008281882361F010923A010E94F61C90937F
:100EC00039018093380182E00E94C01235CF8091B1
:100ED0003A0181110FC080913801909139010E942F
:100EE000021D883C910530F486E20E94951186E24D
:100EF0000E94711282E00E94C7121ECF80913B01B6
:100F000081110FC080913801909139010E94021D1A
:100F1000883C910530F487E20E94951187E20E9497
:100F2000711280E2E8CF0C94FB090C94FD090C943B
:100F3000EE050C9497070895972F70E02CE0929F90
:100F4000600D711D1124FB0190E3899FE00DF11DDF
:100F50001124EE0FFF1FEF58FE4F859194910895D5
:100F6000FC01EE0FFF1FEF58F84F85919491089503
:100F70000E949C070E942B09811520E4920708F02B
:100F80008DC0811540E3940708F0E8C0803E9105CC
:100F900008F071C0803C910508F0CCC0883A9105FA
:100FA00080F4853A910508F0CAC08130910509F4B2
:100FB0006EC020F08430910508F069C090E080E0B8
:100FC00008958D3B9105D0F7883A910509F404C145
:100FD000893A910509F403C18A3A910509F402C1DD
:100FE0008B3A910509F401C18C3A910509F400C1CD
:100FF0008B3B910509F4FFC08C3B910509F4FEC0C1
:101000008D3A910509F4FDC0803B910509F4FCC0BF
:101010008E3A910509F4FBC08F3A910509F4FAC0A4
:10102000813B910509F4F9C0823B910509F4F8C0B0
:10103000833B910509F4F7C0843B910509F4F6C0A0
:10104000853B910509F4F5C0863B910509F4F4C090
:10105000873B910509F4F3C0883B910509F4F2C080
:10106000893B910509F4F1C08A3B910509F4F0C070
:1010700080E094E408958F3F910509F048F4803FA3
:10108000910508F067C0883E910508F097CF089554
:10109000811520E2920708F05FC00895811543E5AD
:1010A000940760F5811522E5920708F062C081156A
:1010B00041E5940708F058C0811520E5920708F42F
:1010C00050C09C0154E0369527955A95E1F7922F30
:1010D0009370482F437021E030E002C0220F331F8D
:1010E0004A95E2F73C68392B86958695837040E2F5
:1010F000849FC0011124822B932B0895811545E50F
:10110000940750F4811524E5920708F446C0982FFF
:101110008827846F906A0895811546E5940708F43E
:1011200050C09C0130569F702115304108F046CFC9
:1011300090620895805C91090E94B0070895853AF5
:10114000910509F443C0863A910509F042C082E84E
:1011500090E40895906508959F70EECF9927906C64
:1011600008959F70906A0895982F8827816F906ADC
:101170000895AC014370552721E030E002C0220FF2
:10118000331F4A95E2F78695869540E2849FC00119
:101190001124822B932B9C680895AC014370552732
:1011A00021E030E002C0220F331F4A95E2F7869516
:1011B000869540E2849FC0011124822B932B9A686C
:1011C0000895982F882788279F71B2CF81E890E4EF
:1011D000089583E890E4089582EE94E4089589EEFA
:1011E00094E408958AEE94E4089585EB94E40895D8
:1011F00086EB94E4089583EB94E4089584EB94E4FF
:10120000089587EB94E408958CEC94E408958DECB4
:1012100094E4089583E895E408958AE895E40895B0
:1012200082E995E4089584E995E4089581E296E4DD
:10123000089583E296E4089584E296E4089585E2B1
:1012400096E4089586E296E4089587E296E4089588
:101250008AE296E41CCF8238910549F1B0F48133DB
:10126000910509F45CC048F48932910509F452C033
:101270008A32910509F458C008958533910509F41F
:1012800044C08933910599F00895833E910531F169
:1012900038F4803E910591F0823E9105B1F00895B9
:1012A000863E910511F1873E910541F10895209107
:1012B00052022370C9F080EE90E00895209152020E
:1012C00020FF12C089E390E008952091520222FF8E
:1012D0000BC024FF2EC090E080E0089520915202C0
:1012E00022FD2AC024FDF7CF08952091520223FF4A
:1012F000FBCF24FDF0CF87EE90E0089520915202BD
:1013000023FFF0CF86EE90E008952091520225FD54
:1013100016C008952091520225FD14C00895209111
:10132000520226FD12C008952091520226FD10C0DF
:10133000089583EE90E0089582EE90E0089589E2AA
:1013400090E0089585E390E008958AE290E00895A2
:1013500081E390E0C9CF08950F931F93CF938C0141
:10136000FB018281811106C0C1E08C2FCF911F91BA
:101370000F910895C0914901C11125C00531104751
:1013800099F70E94AB0981E0809349010E94F61C05
:10139000909348018093470110923C0110923E01C6
:1013A00010923D011092400110923F0110924201B3
:1013B0001092410110924401109243011092460193
:1013C00010924501D2CF80914701909148010E942F
:1013D000021D883C910540F680913C01E82FF0E029
:1013E000EE0FFF1FE35CFE4F118300838F5F80933E
:1013F0003C01C0E0BACF0C94EA050C94EB05CF9306
:10140000DF9385B7806885BF85B7806885BFA0E218
:10141000B1E044E251E0C1E0D0E08D91E82FE295E7
:10142000EF70F0E061A18F709E0101C0220F8A95DC
:10143000EAF7922F9095962391A382A1822B82A303
:101440004A175B0751F7A4E1B1E040E251E0C1E087
:10145000D0E08D91E82FE295EF70F0E061A18F7000
:101460009E0101C0220F8A95EAF7922F909596234C
:1014700091A382A1822B82A34A175B0751F7109296
:1014800053011092520110924B0110924A01109296
:1014900055011092540110924D0110924C0110927E
:1014A00057011092560110924F0110924E01109266
:1014B0005901109258011092510110925001DF9180
:1014C000CF910C9493074F925F927F928F929F924D
:1014D000AF92BF92CF92DF92EF92FF920F931F9342
:1014E000CF93DF93CAE4D1E000E211E094E2A92EA9
:1014F00091E0B92EEE24E394F12C99249394C880C2
:10150000D98019821882D8018D918D01E82FE2953A
:10151000EF70F0E091A18F70970101C0220F8A95C2
:10152000EAF7892F822B81A382A1822E80948821C1
:1015300082A3B0EABA95F1F784E1482E81E0582EF3
:1015400090E080E0D2017D912D01472F42954F70B0
:1015500050E0DA0190967C90488159817F70D701E4
:1015600002C0AA0FBB1F7A95E2F7BD01672109F0FF
:1015700068C0B701082E02C0660F771F0A94E2F711
:10158000462B572B5983488301968C309105D1F611
:1015900081A1882281A282A1282B22A388819981FE
:1015A000C816D90641F090925A010E94F61C9093F9
:1015B0005C0180935B012296A016B10609F09FCFD3
:1015C00080915A01882351F180915B0190915C01D7
:1015D0000E94021D069710F180914A0190914B01E3
:1015E000909353018093520180914C0190914D0151
:1015F000909355018093540180914E0190914F0139
:101600009093570180935601809150019091510120
:10161000909359018093580110925A010E949507A6
:1016200081E0DF91CF911F910F91FF90EF90DF90BC
:10163000CF90BF90AF909F908F907F905F904F9092
:10164000089570E060E09CCFE82FF0E0EE0FFF1F00
:10165000EE5AFE4F80819181089508953BB1242F69
:10166000209523233BB1432B3FB7F894FC01680F2F
:10167000791FE617F70711F43FBF0895819198E0AD
:101680004BB9000000C087FF2BB9880F000000C0D5
:1016900000C000C02BB900C09A9591F7EACF2AB1DB
:1016A000242B2AB99B01220F331F620F731F0E9444
:1016B0002E0B87EC90E00197F1F700C00000089531
:1016C00048E00C944F0BCF92DF92EF92FF920F9372
:1016D0001F93CF93DF93E901662309F466C0E42EDC
:1016E000F12CEFEFF0E0E61BF109EE9D8001EF9D9C
:1016F000100DFE9D100D1124212FE12FFF27EE1A52
:10170000FF0A5CE3C52ED12CB6010E940B29FB0118
:10171000BC01E69EC001E79E900DF69E900D11243F
:10172000B6010E940B29E230F10589F168F4812F9E
:10173000262F210F309781F0242F461B319761F01F
:1017400080E020E040E008C0E430F10551F128F1EC
:10175000842F861B3597A1F7E42FF0E0E258F74F6E
:101760004491E22FF0E0E258F74F9491E82FF0E037
:10177000E258F74FE49149839883EA83DF91CF9150
:101780001F910F91FF90EF90DF90CF900895862FDB
:10179000810FE42F412F2E2FDFCFE42FE61B842F64
:1017A000F9CF842F462F410FD7CF842F242FD4CFAA
:1017B00088E090E00C944129AB01BC0188E090E006
:1017C0000C945F29E4E3F2E083E080831092350219
:1017D0008FEF828383836091340270913502809110
:1017E0003602909137020C94DC0B80913402ECE3CA
:1017F000F2E080FF06C066E070E08CE392E00C94BB
:10180000600B118210821282339682E0EE34F80768
:10181000C1F7F1CFECE3F2E081836083428333963A
:1018200092E0EE34F907C1F70C94F50BEF92FF92BA
:101830000F931F93CF93DF9300D01F92CDB7DEB7E6
:10184000182FE92EF62E042F809134029091350244
:10185000A0913602B09137028093380290933902FA
:10186000A0933A02B0933B028091340280FF1FC0E4
:101870009E012F5F3F4F812F9E2D0E94630B809111
:10188000380210FB87F9809338021695809139024F
:101890008078812BE0FA87F980933902F0923A023E
:1018A00000933B024B8169818A810E940A0C0F9050
:1018B0000F900F90DF91CF911F910F91FF90EF90BC
:1018C00008950F931F93CF93DF93EC01062F142FEE
:1018D0009091340290FF43C0892F8E77823021F59A
:1018E000CE010E94160C80913402C0FB87F98093D0
:1018F0003402C695809135028078C82BD0FBC7F999
:10190000C09335020093360210933702609134027F
:10191000709135028091360290913702DF91CF911C
:101920001F910F910C94DC0B892F86958F732EE3FA
:10193000280F2F73243018F410913702D4CF865C0F
:101940008F73893080F6991F9927991FD09135029E
:10195000CD2FCC0FC92BD7FBDD27D0F9C4CFDF911A
:10196000CF911F910F910895E4E3F2E02081221FAF
:101970002227221F30913502432F440F842F822BC0
:1019800037FB992790F9089668E671E00E941F29B5
:10199000438162810C94610C20913402221F222722
:1019A000221F30913502432F440F842F822B37FBA7
:1019B000992790F98830910540F4805A9E4F4091C4
:1019C0003702609136020C94610C089768E671E06A
:1019D0000E941F29F4CF60913602683F90F4685F3F
:1019E00080913402881F8827881F90913502292F03
:1019F000220F97FB992790F940913702822B0C9484
:101A0000610C6FEFEDCF60913602683090F0685056
:101A100080913402881F8827881F90913502292FD2
:101A2000220F97FB992790F940913702822B0C9453
:101A3000610C60E0EDCF40913702483F90F4485F81
:101A400080913402881F8827881F90913502292FA2
:101A5000220F97FB992790F960913602822B0C9404
:101A6000610C4FEFEDCF40913702483090F0485075
:101A700080913402881F8827881F90913502292F72
:101A8000220F97FB992790F960913602822B0C94D4
:101A9000610C40E0EDCF9091340290FF3BC0917813
:101AA000811126C09260909334026091340270914B
:101AB000350280913602909137020E94DC0B8091B2
:101AC0003402982F9E779230D9F410927201881FB9
:101AD0008827881F90913502292F220F97FB99277D
:101AE00090F94091370260913602822B0C94610C80
:101AF000893110F09063D7CF8F73880F982BD3CF95
:101B0000982F9695925C9F73963108F791E0909389
:101B10007201DDCF089580910702816080930702F2
:101B200081E0809373010E94551C811104C00E94C2
:101B3000341C0E94E20B0E94D80B60933402709315
:101B4000350280933602909337026E7761F40E94DB
:101B5000E20B0E94D80B609334027093350280939D
:101B600036029093370281E08093720180913402B3
:101B700080FF04C086958F730C944B0D089580915F
:101B8000340286958F738F5F893108F081E00C9461
:101B90004B0D90913402892F8E7F90FF816080934E
:101BA0003402609134027091350280913602909136
:101BB00037020E94DC0B8091340280FF04C08695BE
:101BC0008F730C944B0D109272012FEF80E792E00F
:101BD000215080409040E1F700C000000C94F50BCC
:101BE000CF93C82F80917001909171010E94021DC6
:101BF000EC2FF0E0E658F84FE491E817190609F0E9
:101C000010F50E94F61C9093710180937001E09191
:101C10006F01F0E0E258F84F449180913402881F40
:101C20008827881F90913502292F220F97FB99272B
:101C300090F960913602822B0E94160C80916F0100
:101C40008F5F80936F01CF910895CF93C82F8091BC
:101C50006D0190916E010E94021DEC2FF0E0E95899
:101C6000F84FE491E817190609F0E8F40E94F61C11
:101C700090936E0180936D0140913702609136021E
:101C800080916B0190916C010E94160C80916B0108
:101C900090916C01019668E671E00E940B29909387
:101CA0006C0180936B01CF910895CF92DF92FF92E8
:101CB0000F931F93CF93DF93F82E8091690190913A
:101CC0006A010E94021DEF2DE695F0E0E958F84FF9
:101CD000E491E817190609F0A8F50E94F61C909304
:101CE0006A01809369010CE312E0D0E0C0E088E66D
:101CF000C82EDD24D39480916701909168018C0FE8
:101D00009D1FB6010E940B299801409137026091F6
:101D100036020E94630BEC960D5F1F4FC83681E0C0
:101D2000D80749F70E94F50B8091670190916801EF
:101D3000F0FE10C00196BE010E940B29909368012D
:101D400080936701DF91CF911F910F91FF90DF90FA
:101D5000CF9008950197F2CFAF92BF92CF92DF92CA
:101D6000EF92FF920F931F93CF93DF93C82FFF241F
:101D7000FA9480FD02C0FF24F39480916501909154
:101D800066010E94021DC695EC2FF0E0EC58F84F5A
:101D9000E491E817190611F008F053C00E94F61CF0
:101DA0009093660180936501CCE3D2E010E000E0FF
:101DB00097E0C92ED12C198218821A8287E0A82EAA
:101DC000B12CE12C809164018E0D87FD8A5F082E75
:101DD000000C990B08171907E9F4209137022A9D86
:101DE000C0012B9D900D1124B6010E941F29462F82
:101DF00080913402881F8827881F90913502592FBF
:101E0000550F97FB992790F99E0160913602852B1B
:101E10000E94630BEF0C81E0A81AB10899F60F5FDE
:101E20001F4F23960630110531F60E94F50B809165
:101E3000640191E0F91212C081110EC085E0809317
:101E40006401DF91CF911F910F91FF90EF90DF9090
:101E5000CF90BF90AF9008958150F1CF90E0019660
:101E6000B8010E941F29EBCFBF92CF92DF92EF9271
:101E7000FF920F931F93CF93DF93CDB7DEB7629797
:101E80000FB6F894DEBF0FBECDBF182F8091620150
:101E9000909163010E94021DE12FF0E0EF58F84F8E
:101EA000E491E817190611F008F07AC00E94F61CB8
:101EB00090936301809362018E010F5F1F4FF12C9D
:101EC000E12C6801D80111961C9211971C92129670
:101ED0001C92B12C9091000180916101B99E800DFE
:101EE000112486300CF085E087FD80E0082E000C80
:101EF000990BE816F906A1F480913402881F88270F
:101F0000881F90913502592F550F97FB992790F90B
:101F100098014091370260913602852B0E94630B35
:101F2000B394B7E0BB12D6CFEFEFEE1AFE0A0D5F07
:101F30001F4FF6E0EF16F10429F62CE332E009E03A
:101F400010E056E0E52EF12CC801B7010E941F29D0
:101F5000FC01EE0FFF1FE80FF91FEC0DFD1D818145
:101F6000D90111968C93119780818C93828112965E
:101F70008C930F5F1F4F2D5F3F4F0F30110521F7DF
:101F80000E94F50B90910001809161019130E1F484
:101F90008A3FB4F489EF809361018FEF8093000151
:101FA00062960FB6F894DEBF0FBECDBFDF91CF9122
:101FB0001F910F91FF90EF90DF90CF90BF90089509
:101FC000815080936101ECCF8D302CF08CE08093B8
:101FD000610181E0E3CF8F5FF4CFCF93DF938091F6
:101FE0005F01909160010E94021D883E934028F19C
:101FF0000E94F61C9093600180935F0180915D01C7
:1020000090915E0101968170992790935E01809373
:102010005D01CCE3D2E09E0140913702609136022F
:1020200090E080E00E94630B239682E0CE34D807D4
:1020300091F7DF91CF910C94F50BDF91CF9108953B
:1020400080917201882371F18091340286958F739B
:102050009EE3980F9F73943018F482500C94F00D07
:102060009AE3980F9F73933018F486500C94250EC2
:1020700097E3980F9F73963018F489500C94550E7F
:1020800091E3980F9F73963018F48F500C94AC0E18
:102090009BE2980F9F73933018F485510C94340F82
:1020A0000C94ED0F08959093790180937801089531
:1020B000E0917801F0917901309721F00190F08161
:1020C000E02D099480E00895E0917801F091790184
:1020D000309721F00280F381E02D09940895E0917A
:1020E0007801F0917901309721F00480F581E02D9D
:1020F00009940895209176013091770128173907C6
:1021000071F09093770180937601E0917801F091DE
:102110007901309721F00680F781E02D0994089528
:1021200020917401309175012817390771F090934F
:10213000750180937401E0917801F09179013097F5
:1021400021F00084F185E02D0994089508950C9400
:10215000A6100E94ED1C0E94FF090E94BE1D0C9457
:102160008B0D5F926F927F928F929F92AF92BF92F0
:10217000CF92DF92EF92FF920F931F93CF93DF9353
:10218000CDB7DEB72A970FB6F894DEBF0FBECDBF2E
:102190000E94630A9BE7A92E91E0B92E10E000E0AF
:1021A00088248394912C502E802F0E94240B7C0134
:1021B000F501C190D1905F01C816D90609F45EC03F
:1021C0008091070281FD0E942D0B90E080E0CE24DB
:1021D000DF243401082E02C0660C771C0A94E2F753
:1021E000960126213721232B09F443C08E835F8279
:1021F000E620F72081E0EF2809F480E088870E943C
:10220000F61C8160782F9A8789874E815F81688567
:102210008A850E946B11000F111FF801E558FE4FCF
:102220008081918168267926718260820E94412096
:102230000E94581090917A018917B9F10E945810A4
:1022400080937A012A960FB6F894DEBF0FBECDBFF9
:10225000DF91CF911F910F91FF90EF90DF90CF9082
:10226000BF90AF909F908F907F906F905F900C94F5
:10227000990701968C30910509F0ABCF0F5F1F4F86
:102280000430110509F08FCF8FEF89838A831B8279
:102290000E94F61C8160782F9D838C8349815A812E
:1022A0006B818D810E946B11C1CF2A960FB6F89475
:1022B000DEBF0FBECDBFDF91CF911F910F91FF9079
:1022C000EF90DF90CF90BF90AF909F908F907F90D6
:1022D0006F905F900895CF93DF93CDB7DEB72B97C4
:1022E0000FB6F894DEBF0FBECDBF4F835887698706
:1022F0007A878B871E821D8285E0FE013796DE017C
:10230000119601900D928A95E1F749815A816B816E
:102310007C818D819E812B960FB6F894DEBF0FBE17
:10232000CDBFDF91CF910C94E817882309F4D8C072
:10233000823871F40E94581081FDD2C089E30E9456
:102340003D1B0E94051C89E30E947A1B0C94051C0E
:10235000833859F40E94581080FDC2C083E50E9462
:102360003D1B0E94051C83E5EFCF843859F40E9481
:10237000581082FDB5C087E40E943D1B0E94051CD9
:1023800087E4E2CF9CEF980F913A18F40E943D1B2E
:10239000DDCF90E2980F983050F4877091E001C043
:1023A000990F8A95EAF7892F0E94BC1BCFCF9BE536
:1023B000980F933070F4853A31F0863A39F083E81B
:1023C00090E00C947A1081E890E0FBCF82E890E0F6
:1023D000F8CF98E5980F953108F082C0883A09F453
:1023E00040C0893A09F440C08A3A09F440C08B3AA7
:1023F00009F440C08C3A09F440C08B3B09F440C05A
:102400008C3B09F440C08D3A09F440C0803B09F48C
:1024100040C08E3A09F440C08F3A09F440C0813B75
:1024200009F440C0823B09F440C0833B09F440C03A
:10243000843B09F440C0853B09F440C0863B09F465
:1024400040C0873B09F440C0883B09F440C0893B49
:1024500009F440C08A3B09F440C090E080E00C944D
:10246000901082EE90E0FBCF89EE90E0F8CF8AEEFC
:1024700090E0F5CF85EB90E0F2CF86EB90E0EFCFE8
:1024800083EB90E0ECCF84EB90E0E9CF87EB90E03A
:10249000E6CF8CEC90E0E3CF8DEC90E0E0CF83E8EA
:1024A00091E0DDCF8AE891E0DACF82E991E0D7CF01
:1024B00084E991E0D4CF81E292E0D1CF83E292E04F
:1024C000CECF84E292E0CBCF85E292E0C8CF86E225
:1024D00092E0C5CF87E292E0C2CF8AE292E0BFCF1E
:1024E0000895882309F44BC0823871F40E94581073
:1024F00081FF45C089E30E943D1B0E94051C89E3C2
:102500000E947A1B0C94051C833859F40E945810C1
:1025100080FF35C083E50E943D1B0E94051C83E5BA
:10252000EFCF843859F40E94581082FF28C087E406
:102530000E943D1B0E94051C87E4E2CF9CEF980F90
:10254000913AF0F290E2980F983050F4877091E051
:1025500001C0990F8A95EAF7892F0E94C21BD2CF3A
:102560009BE5980F933020F490E080E00C947A1073
:10257000885A853120F490E080E00C949010089502
:10258000882321F00E94BC1B0C94051C089588230D
:1025900021F00E94C21B0C94051C08958F929F92FB
:1025A000AF92BF92DF92EF92FF920F931F93CF9360
:1025B000DF937C01D62FC72FFC01058102950F7098
:1025C000128111110E94DB1B0E94361BD82E88231A
:1025D00071F0112321F180E28D0F883000F182E04B
:1025E0000E94201B0E94361B91E0D82ED926EC2F8A
:1025F000E295EF70F0E0E150FD4E0C943329111399
:10260000111361136113A313BF133E133E13CA13B7
:102610003E1362146214D5143E133E13DE14D12C03
:10262000E6CF0C2F0F70C07F11F00295007F1123B1
:10263000A9F0002359F080E28D0F883010F0D111FD
:1026400009C0802F0E94BC1B0E94051C8D2F0E9478
:10265000951114C0802F0E94CD1BF6CF8D2F0E94A4
:102660007112002359F080E28D0F883010F0D111E3
:1026700024C0802F0E94C21B0E94051CDD2009F48B
:10268000A4C10E94131B80FDA0C1F70112820E9409
:102690000D1B0E948719C7010E94F1140E940D1B97
:1026A000DF91CF911F910F91FF90EF90DF90BF903E
:1026B000AF909F908F900C94A819802F0E94D31BED
:1026C000DBCFFC2FFF70BF2EC07FC03219F0B29459
:1026D00080EFB822DD2369F0D13029F1112369F1AF
:1026E000002359F0F701858180FFB0CF8F7085837B
:1026F00004C0112361F0011104C08B2D0E94C0128F
:10270000BDCF8B2D0130D1F70E94EF1BB7CF011148
:1027100006C00E94F21B8B2D0E94C712AFCF013062
:1027200009F4ACCFF6CF112321F0063008F0A6CF84
:10273000E4CF053008F0A2CFEECF002361F38D2F58
:102740000E9471129BCF8C2F86958695837069F0BD
:10275000813009F093CF8D2F9C2F9370111102C0FF
:1027600090E080E00E94901089CF8D2F9C2F937075
:10277000111102C090E080E00E947A107FCF8D2F6F
:10278000112329F00E944A1F0E94362077CF0E9411
:10279000B21FFACF8C2F837009F047C011116ECF92
:1027A0002D2F229526952770220F220F6D2F6F70E7
:1027B000862E912CB12CA12C022E04C0880C991CC1
:1027C000AA1CBB1C0A94D2F760E070E0CB01D4FFD6
:1027D0000FC06FE070E080E090E004C0660F771FEC
:1027E000881F991F2A95D2F76095709580959095CE
:1027F000C695C695C370C23051F080F46829792916
:102800008A299B29C13071F00E94301937CF68297D
:1028100079298A299B290E944C1930CF0E943019AE
:10282000C501B4010E94141929CF8695112311F016
:102830008C2F8170882309F421CF2D2F2295269586
:102840002770220F220F6D2F6F70862E912CB12CC6
:10285000A12C022E04C0880C991CAA1CBB1C0A9433
:10286000D2F760E070E0CB01D4FF0FC06FE070E002
:1028700080E090E004C0660F771F881F991F2A959B
:10288000D2F76095709580959095C695C695C37062
:10289000C23051F080F4682979298A299B29C130F6
:1028A00071F00E940A1AEACE682979298A299B299F
:1028B0000E94261AE3CE0E940A1AC501B4010E94A2
:1028C000EE19DCCEE0E2ED0FE53108F062C0F0E099
:1028D000E459FB4E0C943329811481148114811422
:1028E0008114811481148114811481148114811440
:1028F00081148114811481148E149C14A314AA14BD
:10290000B414DF708C2F8F71112321F00E9487196E
:102910008D2FF4CE0E94A8198D2FFECE112341F0E9
:10292000053008F0ABCE8C2F8F710E94CD19A6CE4A
:10293000063008F0A3CEF7CF8C2F8F71112339F01A
:102940000E9487199BCE8C2F8F711123C9F30E948F
:10295000A81994CE112329F08C2F8F710E9472191F
:102960008DCE0E9468198ACE112349F0CF718C2F29
:102970000E94871963E08C2F0E94171B7FCE81E095
:102980000E94201B023008F479CE82E00E94201BB6
:1029900075CE112329F0011159CE8C2F8F71D0CF14
:1029A0000111CDCE8C2F8F71D2CF4C2F4F706D2F48
:1029B000C7010E94DE050E94911860CE4C2F4F7017
:1029C0006D2FC7010E949B0759CEDF91CF911F91B8
:1029D0000F91FF90EF90DF90BF90AF909F908F90FE
:1029E00008950F931F93CF93DF93EC019881898112
:1029F0002B813C81232B39F08F3F19F481E09F3FDD
:102A000019F080E001C081E080FD17C0CE010E9476
:102A10000006882391F0688179818A810E94E91AF1
:102A20008C010E94421A0E940919B801CE01DF915F
:102A3000CF911F910F910C94CE12DF91CF911F91E6
:102A40000F9108950E94DB1B0E94EC1B0E94AE1B9D
:102A50000E94051C0E94E3200E94362090E080E046
:102A60000E947A1090E080E00C9490100E94CA1BA3
:102A70000C9422150E94DF1AE92FE295EF70E250C4
:102A8000EE30E0F4F0E0E95BFA4E0C943329551592
:102A900055155E155E1560155E155E155E155515AE
:102AA000551565155E155E156515803F19F020F406
:102AB000803E20F481E00895843FE1F380E00895B2
:102AC000803EC0F3813FD1F7F5CF93FB882780F993
:102AD0000895CF93DF9300D000D01F92CDB7DEB71B
:102AE0000F900F900F900F900F90DF91CF9108955E
:102AF000CF93DF9300D000D000D0CDB7DEB72696BD
:102B00000FB6F894DEBF0FBECDBFDF91CF91089511
:102B10001F93CF93DF93C091840116E080918501CC
:102B20008C1304C0DF91CF911F910895D0E01C9FBA
:102B3000F0011D9FF00D1124EA57FE4F4081518195
:102B400062817381848195810E9478152196C77076
:102B5000E5CF4091B6015091B7016091B8017091F5
:102B6000B9018091BA019091BB010C9478151F9323
:102B7000CF93DF938091BB01807FD1F48091B80126
:102B80008823B1F080918401D0918501B091B60184
:102B9000C091B7014091B9015091BA01A1E0BF3F86
:102BA00009F0A0E0BA016095709516E0D81304C052
:102BB000DF91CF911F91089521E04115510521F03A
:102BC0002A2FCF3F09F020E090E020FD38C0189F69
:102BD000F001199FF00D1124EA57FE4F21812C13AB
:102BE0002EC020812B132BC02281211128C02381CC
:102BF00034812417350700F1241B350B283C31059F
:102C0000F0F42091BB012F7020612093BB0126E0DE
:102C1000289FF001299FF00D1124E557FE4F808178
:102C20008F708061808386EB91E00E94F114DF91C8
:102C3000CF911F910C948815260F371FDFCF019677
:102C40008770B4CFAF92BF92CF92DF92EF92FF9294
:102C50000F931F93CF93DF93CDB7DEB761970FB676
:102C6000F894DEBF0FBECDBF8C0185E0F801DE0118
:102C70001D9601900D928A95E1F7D8014C9111961D
:102C80005C9111971296EC903091B6016091B7016A
:102C90008091B9019091BA0121E0009731F06F3F26
:102CA00019F421E03F3F09F020E0B22FB170BB2EB4
:102CB00020FD80C1F801C380D480A090B801AA2073
:102CC00009F427C1C816D906D0F1D601A81BB90B43
:102CD000CD01FF24F394883C910508F0F12C8091FC
:102CE000BB01982F907FFF2009F4CAC0911187C0C3
:102CF000FE2C651329C0341327C0E11025C08F7046
:102D000080618093BB010E94A91586EB91E00E942F
:102D1000F1148091BB01F80185838F2D61960FB668
:102D2000F894DEBF0FBECDBFDF91CF911F910F9101
:102D3000FF90EF90DF90CF90BF90AF900895809577
:102D400090958C0D9D1DC5CF81E0CD2831F05F3F62
:102D500019F481E04F3F09F080E080FD24C081E05C
:102D60008E25F82FF170DF2E80FF3FC08091840107
:102D70002091850136E0821318C04D875E878D85CE
:102D80009E850E94DF1A292F22952F70223008F18C
:102D9000243030F59F7009F1D80115969C91907FF1
:102DA000E1F4FB2CBACF80E0DCCF90E0389FF0015B
:102DB000399FF00D1124EA57FE4F6181561306C06A
:102DC0006081461303C062816E110FC00196877047
:102DD000D2CF9F7011F0882321F3805E883008F3F2
:102DE000C8010E94F114BD2CDCCFEE2009F495CF70
:102DF0008091BB0181608093BB01F12C8ECF651364
:102E000012C0341310C0E1100EC0F8018583C80150
:102E10000E94F11486E0F801A6EBB1E001900D925A
:102E20008A95E1F741C04D875E878D859E850E941A
:102E30003A15882309F4C8C0EE2009F4C5C0809172
:102E4000BB01803270F02091B6013091B701388714
:102E50002F831986DB86CA868C87CE0107960E944F
:102E6000F11486E0F801A6EBB1E001900D928A958D
:102E7000E1F70E94B7150E94A915FF24F3944DCFE6
:102E8000911115C07C2DD98AC88A6E2D89890E941E
:102E9000691586EB91E00E94F11486E0E6EBF1E023
:102EA000DF011D928A95E9F70E94A91536CF6513B7
:102EB00012C0341310C0E1100EC0F8018583C801A0
:102EC0000E94F114E6EBF1E086E0DF011D928A95A5
:102ED000E9F7FA2C22CF4D875E878D859E850E946B
:102EE0003A15882309F470C0EE2009F46DC0809172
:102EF000BB01803208F4B5CF2091B6013091B70103
:102F00003A8329831B82DD82CC828E83CE01019697
:102F1000A6CFC816D90638F1F601E81BF90BCF0188
:102F2000F12C883C910508F03DC0FE2CEE2009F400
:102F30004BC0651326C0341324C08091BB0180FDB3
:102F400017C0982F907FA1F0D80115968C931597F4
:102F5000903F09F45CCF982F907F905F8F70892B02
:102F600015968C9354CF809590958C0D9D1DD8CF40
:102F700086E0F801A6EBB1E001900D928A95E1F7A9
:102F8000CCCE4D875E878D859E850E943A15811136
:102F900068CF8091BB0181608093BB01C8010E9412
:102FA000F114BBCE7C2DD98AC88A6E2D89890E94E6
:102FB000691573CFEE2041F04D875E878D859E8524
:102FC0000E943A1581114DCFC8010E94F11455CFCE
:102FD0001F93CF93DF93CDB7DEB72C970FB6F8943E
:102FE000DEBF0FBECDBF4F83588769877A878B8737
:102FF0009C87CE0107960E942216882309F442C0BE
:103000009F8188852A853B85232B39F08F3F19F4D2
:1030100081E09F3F19F080E001C081E080FD08C0A1
:103020004F81588569857A858B859C850E947815A6
:1030300016E08091840190918501891709F467C099
:10304000819FC00111248A579E4F0E942216882317
:1030500009F45DC0E09184011E9FF0011124EA573C
:10306000FE4F4081518162817381848195810E94EC
:1030700078158091840190E001968770992780935C
:103080008401D7CF86E0FE013796DE0111960190CC
:103090000D928A95E1F79F8188852A853B85232BB0
:1030A00039F08F3F19F481E09F3F19F080E001C0B3
:1030B00081E080FDBDCF2091850130E0C9010196FE
:1030C00087709927409184014817190699F096E076
:1030D000929FD001939FB00D1124AA57BE4FFE01BD
:1030E000319601900D929A95E1F7809385010E94A7
:1030F00088159ECF0E94361510928501109284018A
:1031000086E0E6EBF1E0DF011D928A95E9F72C9667
:103110000FB6F894DEBF0FBECDBFDF91CF911F91E8
:103120000895EF92FF920F931F93CF93DF938C013B
:10313000892B81F0F12CEE24E394E8012196F8012B
:103140008491843770F4843008F05FC08130B1F02E
:103150008230A1F1DF91CF911F910F91FF90EF90FD
:103160000895853709F44CC008F43DC09CE7980FDA
:10317000903780F78F770E94711249C00E5F1F4F02
:10318000FE01849190E2980F983060F48770FE2DD4
:1031900001C0FF0F8A95EAF78F2F0E94DE1B0E9465
:1031A000051C02C00E9495118F2D815030F2EFE96D
:1031B000FFE03197F1F700C00000F7CF0E5F1F4F1F
:1031C000FE01849190E2980F983050F48770FE2DA4
:1031D00001C0FF0F8A95EAF78F2F0E94E41BDFCF13
:1031E0000E947112E1CF0E5F1F4FFE01C491C150CA
:1031F000D8F28FE99FE00197F1F700C00000F7CF08
:103200000E5F1F4FFE01F490CFCF0E9495118E01EB
:10321000CBCF08956093DE017093DF018093E001CE
:103220009093E1010C9422150F931F930091DE01FE
:103230001091DF012091E0013091E101DC01CB012F
:10324000802B912BA22BB32B8093DE019093DF0177
:10325000A093E001B093E1011F910F910C9422150E
:103260000F931F930091DE011091DF012091E00187
:103270003091E101DC01CB0180239123A223B32310
:103280008093DE019093DF01A093E001B093E10110
:103290001F910F910C9422150F931F930091DE0143
:1032A0001091DF012091E0013091E101DC01CB01BF
:1032B00080279127A227B3278093DE019093DF0117
:1032C000A093E001B093E1011F910F910C9422159E
:1032D0001092DA011092DB011092DC011092DD01F4
:1032E0000C94221541E050E060E070E004C0440F0F
:1032F000551F661F771F8A95D2F74093DA015093C6
:10330000DB016093DC017093DD010C94221541E038
:1033100050E060E070E004C0440F551F661F771F47
:103320008A95D2F78091DA019091DB01A091DC01BE
:10333000B091DD01842B952BA62BB72B8093DA015E
:103340009093DB01A093DC01B093DD010C94221576
:1033500041E050E060E070E004C0440F551F661F7C
:10336000771F8A95D2F7409550956095709580911A
:10337000DA019091DB01A091DC01B091DD018423A1
:103380009523A623B7238093DA019093DB01A093C2
:10339000DC01B093DD010C94221541E050E060E0C7
:1033A00070E004C0440F551F661F771F8A95D2F73F
:1033B0008091DA019091DB01A091DC01B091DD01F7
:1033C00084279527A627B7278093DA019093DB01FE
:1033D000A093DC01B093DD010C9422150F931F9391
:1033E0000091DA011091DB012091DC013091DD01C7
:1033F000DC01CB01802B912BA22BB32B8093DA0124
:103400009093DB01A093DC01B093DD011F910F913C
:103410000C9422150F931F930091DA011091DB0198
:103420002091DC013091DD01DC01CB01802391236F
:10343000A223B3238093DA019093DB01A093DC01F4
:10344000B093DD011F910F910C9422150F931F93E0
:103450000091DA011091DB012091DC013091DD0156
:10346000DC01CB0180279127A227B3278093DA01C3
:103470009093DB01A093DC01B093DD011F910F91CC
:103480000C94221508952CE0929F800D1124982F02
:10349000977071E001C0770F9A95EAF78695869547
:1034A000869525E0829FC001112450E040E0A62FC0
:1034B000B0E0FC01E40FF51FE454FE4F60819D0174
:1034C000042E02C0369527950A94E2F721702195C3
:1034D00026272723262720834F5F5F4F453051053E
:1034E00041F708952CE0929F800D1124982F97703A
:1034F00086958695869525E0829FA001112470E02F
:1035000060E080E0FA01E60FF71FE454FE4F2081EF
:1035100030E0092E02C0369527950A94E2F7217013
:103520003327062E01C0220F0A94EAF7822B6F5F21
:103530007F4F6530710531F70895BF92CF92DF92CA
:10354000EF92FF920F931F93CF93DF938C01C09064
:10355000DA01D090DB01E090DC01F090DD01809198
:10356000DE019091DF01A091E001B091E101C82A54
:10357000D92AEA2AFB2ACFE1D0E0BC2ED701C60126
:103580000C2E04C0B695A795979587950A94D2F707
:1035900080FD0EC0219788F7B12C8B2DDF91CF9144
:1035A0001F910F91FF90EF90DF90CF90BF90089503
:1035B000B8018C2F0E94B807019761F3EECFCF932B
:1035C000DF93EC010E949D1ABE01DF91CF910C9414
:1035D000B8071F93CF93DF93EB0190918301992359
:1035E00031F0CB01DF91CF911F910C94DF1A88232A
:1035F00079F0CB010E949D1A182F682FCE010E94EE
:10360000431ABE01812FDF91CF911F910C94B8070F
:10361000CB010E94721A182FF4CF8091E201859598
:103620008595859508958091E2018770089598E0C9
:10363000899F90011124622B6093E2010C948719F9
:103640009091E201809589238093E201282F2770D1
:1036500061F4282F082E000C330B9217130629F063
:103660008595859585950C94A81908959091E2010A
:10367000977081E009F480E00895909113019923F7
:10368000E1F09091520297FF18C0E82FE695E69579
:10369000E695EF3139F12091010130910201E20FFD
:1036A000F32FF11D877021E030E001C0220F8A95D1
:1036B000EAF78181822B8183089520910101309165
:1036C0000201F90132969FEF40E05191851751F0C8
:1036D0009F3F19F4511101C0942F4F5F4E31A9F74C
:1036E0009F3F09F40895290F311D97FD3A95F9017F
:1036F00082830895909113019923F1F090915202E1
:1037000097FF1AC0E82FE695E695E695EF3129F187
:103710002091010130910201E20FF32FF11D282FBA
:10372000277081E090E001C0880F2A95EAF7809524
:1037300091818923818308952091010130910201B3
:10374000F9013296205E3F4F9191891303C0DF014A
:1037500011971C92E217F307B9F7089581E090E002
:10376000E0910101F0910201E80FF91F108201962A
:1037700080329105A9F7089590910602892B8093D4
:1037800006020895982F90958091060289238093D0
:103790000602089510920602089590910502892B61
:1037A000809305020895982F9095809105028923B2
:1037B00080930502089510920502089590910402E5
:1037C000892B809304020895982F9095809104028C
:1037D000892380930402089510920402089580932F
:1037E000E30108951092E3010895209101013091C1
:1037F0000201F9013196205E3F4F80E091919111D5
:103800008F5FE217F307D1F70895E0910101F0917E
:103810000201809106028083E0910101F091020192
:10382000808190910502892B8083E0910101F091C4
:103830000201808190910402892B80839091E301A1
:10384000992361F0E0910101F09102018081892BBF
:1038500080830E94F51B81111092E3018091010188
:10386000909102010C9464106DEE7EEF90E080E088
:103870000E946B2960E082E090E00E944D2960E0A8
:1038800083E090E00E944D2960E084E090E00E9497
:103890004D2960E085E090E00E944D2940E050E035
:1038A000BA0188E090E00C945F2990E080E00E94EB
:1038B000472921E08D3E9E4F09F020E0822F089598
:1038C00082E090E00C943929682F82E090E00C941B
:1038D0004D2983E090E00C943929682F83E090E033
:1038E0000C944D2984E090E00C943929682F84E0F1
:1038F00090E00C944D2980915802843039F1109257
:10390000080288E190E020E40FB6F894A89580932F
:1039100060000FBE2093600080E00E94990783B78B
:10392000817F846083BF83B7816083BF78948895EB
:1039300083B78E7F83BF0FB6F894A89580916000FF
:10394000886180936000109260000FBE0895089512
:103950000895CF930E94A71C0E94630A0E94A81C8E
:10396000C0E08C2F0E94240B892B31F4CF5FC43030
:10397000C1F780E0CF91089581E0FCCF0E94361519
:103980000E9458100C9499071F920F920FB60F9235
:1039900011248F939F93AF93BF938091080281115D
:1039A00013C080914E0290914F02A0915002B091AD
:1039B00051024196A11DB11D80934E0290934F027A
:1039C000A0935002B0935102BF91AF919F918F91FC
:1039D0000F900FBE0F901F90189582E084BD93E06A
:1039E00095BD9AEF97BD80936E0008952FB7F89418
:1039F00080914E0290914F02A0915002B0915102DD
:103A00002FBF0895CF92DF92EF92FF920F931F93F3
:103A10002FB7F89440914E0250914F02609150029E
:103A2000709151022FBF6A017B01EE24FF248C01AB
:103A300030E020E0C016D106E206F30650F0481B45
:103A4000590BCA011F910F91FF90EF90DF90CF901B
:103A5000089541505109F3CF1F920F920FB60F9264
:103A600011248F939F93AF93BF9380914E029091B7
:103A70004F02A0915002B09151020196A11DB11DBB
:103A800080934E0290934F02A0935002B093510244
:103A9000BF91AF919F918F910F900FBE0F901F908C
:103AA00018950E94DF24F8942FEF87EA91E62150C1
:103AB00080409040E1F700C0000087E090EBDC011F
:103AC0008093610290936202A0936302B0936402B8
:103AD00088E19CE00FB6F894A895809360000FBE33
:103AE00090936000FFCFAF92BF92CF92DF92EF92A0
:103AF000FF920F931F93CF93C0E0CC24C394D12C9B
:103B0000E82EF12C8C2F0E94240B5C0110E000E0C9
:103B1000C601002E02C0880F991F0A94E2F78A217D
:103B20009B21892B99F40F5F1F4F0C30110581F7F2
:103B3000CF5FC43039F780E0CF911F910F91FF9094
:103B4000EF90DF90CF90BF90AF900895602F7C2FC3
:103B500080E00E949C07E816F90629F781E0ECCF87
:103B6000CF93C82F8CE20E94731D882321F08C2FE5
:103B7000CF910C94731D80E0CF910895CF930E9454
:103B8000551C811102C00E94341CC5E608C00E9469
:103B9000630A8FE39CE90197F1F700C00000C15070
:103BA000B1F789E20E94B01D8111EFC08AE20E9444
:103BB000B01D81110E94341C85E00E94B01D81114E
:103BC0000E94511D0E94601C8093070287E00E94A2
:103BD000B01D882371F08BE10E94B01D882309F489
:103BE000B1C090910702892F8D7F91FF82608093F1
:103BF0000702809107020E94641C0E94721C90E0E0
:103C0000909353028093520280EE0E94B01D88234D
:103C100041F090915202892F8E7F90FF81608093B6
:103C2000520289E30E94B01D882341F09091520214
:103C3000892F8D7F91FF82608093520282EE0E94D5
:103C4000B01D882341F090915202892F8B7F92FF03
:103C500084608093520286EE0E94B01D882341F05A
:103C600090915202892F877F93FF88608093520240
:103C700083EE0E94B01D882341F090915202892F5B
:103C80008F7E94FF80618093520285E30E94B01D75
:103C9000882341F090915202892F8F7D95FF806299
:103CA0008093520281E30E94B01D882341F09091DD
:103CB0005202892F8F7B96FF80648093520281E1AC
:103CC0000E94B01D882341F090915202892F97FBEA
:103CD00087F9805880935202809152020E94761C8C
:103CE00087E20E94B01DC82F8EE10E94B01D811195
:103CF000C2608FE10E94B01D8111C46080E20E9409
:103D0000B01D8111C86081E20E94B01D8111C061A7
:103D100082E20E94B01D8111C06283E20E94B01D48
:103D20008111C06484E20E94B01D882341F1C06803
:103D30008C2F0E946D1C6C2F70E090E080E0CF9182
:103D40000C940A198EE00E94B01D882339F09091DE
:103D50000702892F8B7F92FF846049CF80E10E9408
:103D6000B01D90910702882329F0892F877F93FF48
:103D700088603DCF892F8E7F90FF816038CFC11141
:103D8000D7CF0E94691C682FD7CFCF91089580911B
:103D90000B0280FF12C06091060185E0689FB001B0
:103DA0001124759567957595679560387105A8F527
:103DB00061157105A1F1862F089581FF09C06091F9
:103DC000060185E0689FB001112475956795EDCFD8
:103DD00082FF07C06091060185E0689FB001112451
:103DE000E4CF20910C022223A9F09091050160916B
:103DF000060185E0689FB00111242917B0F6269FBF
:103E0000A001279F500D1124692F70E0CA010E9464
:103E10001F29CBCF65E070E0CECF8FE7089581E01A
:103E2000089580910B0280FF0CC06091040170E046
:103E300075956795759567956115710549F1862F9B
:103E4000089581FF06C06091040170E07595679543
:103E5000F3CF6091040182FD0BC090910C02992375
:103E6000A1F06091030180910401961738F0682F4A
:103E700070E06038710500F38FE70895899FC001F5
:103E8000112470E00E941F29F4CF61E070E0D7CFC9
:103E900081E00895803F31F40E94C71E8195809390
:103EA0000F020895813F19F40E94C71EF8CF823F88
:103EB00031F40E94C71E819580930E020895833FBE
:103EC00019F40E94C71EF8CF893F29F40E94111FE0
:103ED0008093100208958A3F21F40E94111F81955A
:103EE000F7CF8B3F31F40E94111F8195809311020F
:103EF00008958C3F19F40E94111FF8CF843F31F4CC
:103F000080910D02816080930D020895853F21F418
:103F100080910D028260F7CF863F21F480910D02DF
:103F20008460F1CF873F21F480910D028860EBCF50
:103F3000883F21F480910D028061E5CF8D3F31F4FF
:103F400080910B02816080930B0208958E3F21F4D3
:103F500080910B028260F7CF8F3FB9F780910B02FF
:103F60008460F1CF803FC1F480910F0287FD1092F1
:103F70000F0280910E0281110EC080910F028111FB
:103F80000AC080911002811106C080911102811136
:103F900002C010920C020895813F29F480910F0213
:103FA00018162CF3E6CF90910E02823F29F497FF6A
:103FB000E0CF10920E02DDCF833F19F41916CCF337
:103FC000D8CF893F39F480911002181694F61092D8
:103FD0001002CFCF8A3F29F48091100287FFC9CF0A
:103FE000F6CF8B3F39F48091110287FFC2CF109238
:103FF0001102BFCF8C3F29F4809111021816BCF337
:10400000B8CF843F31F480910D028E7F80930D02F2
:10401000B0CF853F21F480910D028D7FF7CF863F91
:1040200021F480910D028B7FF1CF873F21F48091A5
:104030000D02877FEBCF883F21F480910D028F7EA8
:10404000E5CF8D3F31F480910B028E7F80930B0280
:1040500090CF8E3F21F480910B028D7FF7CF8F3F61
:1040600009F087CF80910B028B7FF0CF8DE092E03B
:104070000E946F100E94F61C90930A02809309021E
:1040800008951F93CF93DF938091090290910A02C4
:104090000E94021DAC0190910C022091070130E0BA
:1040A000911106C0209108018AE0289F90011124F7
:1040B0004217530780F080910E02C0910F021091B9
:1040C0001002D091110281110AC0C11178C01111E2
:1040D00076C0D11174C0DF91CF911F9108959F3F99
:1040E00019F09F5F90930C02181624F40E94C71ECB
:1040F00080930E0280910E0287FF05C00E94C71EAA
:10410000819580930E021C1624F40E94C71E809392
:104110000F0280910F0287FF05C00E94C71E819584
:1041200080930F0260910E02662331F1C0910F025D
:10413000CC2311F1062E000C770B880B990B0E94F3
:10414000122823E333E343E35FE30E9476280E94CF
:10415000DA2760930E026C2FCC0F770B880B990B2C
:104160000E94122823E333E343E35FE30E947628AF
:104170000E94DA2760930F02111624F40E94111F87
:10418000809310028091100287FF05C00E94111FCA
:104190008195809310021D1624F40E94111F8093B4
:1041A00011028091110287FF05C00E94111F8195A5
:1041B00080931102DF91CF911F910C9436209F3F85
:1041C00009F08FCFA0CF85E0EDE0F2E0DF011D9296
:1041D0008A95E9F710920C0210920B0208958091D3
:1041E00032020895CF93DF9300D01F92CDB7DEB790
:1041F0009C0180915802843019F593E099833B83A8
:104200002A839093E9008FEF9091E800815095FD0B
:1042100006C095ED9A95F1F700008111F5CF8091D8
:10422000E80085FF0DC050E040E063E070E0CE01A3
:1042300001960E944F238091E8008E778093E800DA
:104240000F900F900F90DF91CF910895CF93DF9350
:1042500000D01F92CDB7DEB720915802243031F53F
:1042600022E02983805891099B838A8383E080938D
:10427000E9008FEF9091E800815095FD06C095ED23
:104280009A95F1F700008111F5CF8091E80085FF44
:104290000DC050E040E063E070E0CE0101960E9466
:1042A0004F238091E8008E778093E8000F900F9065
:1042B0000F90DF91CF9108959C0180915802843036
:1042C000F9F482E08093E9009FEF8091E80091503B
:1042D00085FD06C085ED8A95F1F700009111F5CFB7
:1042E0008091E80085FF0CC050E040E065E070E0A0
:1042F000C9010E944F238091E8008E778093E800E7
:104300000895CF93DF93EC01809158028430F1F44B
:10431000909113019923E9F09091520297FF19C0EF
:104320008093E9008FEF9091E800815095FD06C0E1
:1043300095E19A95F1F700008111F5CF8091E800A1
:1043400050E040E060E270E085FD1AC0DF91CF915F
:10435000089581E08093E9008FEF9091E80081500B
:1043600095FD06C095ED9A95F1F700008111F5CF06
:104370008091E80085FFEACF50E040E068E070E01F
:10438000CE010E944F238091E8008E778093E80051
:1043900080E2FE01A2E1B2E001900D928A95E1F780
:1043A000D5CF80915702811109C00E94DF240E945D
:1043B0003C258091E20084608093E2000895109291
:1043C00057020895089508950C94BE1C42E061ECD4
:1043D00081E00E945D2442E061EC82E00E945D2465
:1043E00042E061EC83E00E945D2442E261EC84E003
:1043F0000C945D2480915A02833009F455C030F446
:10440000813071F1823009F491C008958A3009F445
:104410007DC08B3009F463C0893009F044C08091BD
:104420005902813209F03FC080915D0290915E0295
:10443000009711F00397B9F58091E800877F80938A
:10444000E8008091E80082FF2AC08091F10080930B
:1044500032028091E8008B778093E8000C949124DD
:1044600080915902813AF9F48091E800877F809326
:10447000E80080915D0290915E02892B61F460E218
:1044800082E192E070E00E949E238091E8008B77A9
:104490008093E800089560E090E080E0F3CF8091A1
:1044A00058028111CECF089580915902813AD9F7EF
:1044B00080915D0290915E02892BA9F78091E800BE
:1044C000877F8093E8008091E80080FFFCCF809197
:1044D00013018093F1008091E8008E77BDCF809129
:1044E0005902813201F780915D0290915E02892B21
:1044F000D1F68091E800877F8093E8000E949124A4
:1045000080915B02809313010C94361580915902BF
:10451000813249F68091E800877F8093E8000E940D
:10452000912480915C028093330208958091590216
:10453000813A09F0B8CF8091E800877F8093E80046
:104540008091E80080FFFCCF80913302C2CF84B716
:10455000877F84BF0FB6F894A8958091600088612A
:1045600080936000109260000FBE80E8809361002D
:10457000109261000E94A7100E94DF240E943C2537
:104580008091E20084608093E20078940E94BE27CC
:104590000E94A91089E091E00E9453108091580276
:1045A000853029F00E94B1100E942010F7CF0E94A0
:1045B0007B1C80915602882389F30E94A91C8823C2
:1045C00069F30E943923EACF292F3327233031059D
:1045D00079F158F421303105F1F02230310519F12B
:1045E00090E080E030E020E01AC02132310599F1FE
:1045F00022323105A9F7643098F770E0FB01EE0F25
:10460000FF1FE85DFE4F208131816C5D7E4FFB0115
:10461000808190E004C082E190E02BE13AE0FA0171
:104620003183208308958DE690E02EEA39E0F7CFBC
:1046300099278130910561F028F0029789F6EEE71D
:10464000F9E002C0EAEAF9E0849190E09F01E7CF47
:10465000E2E9F9E0F9CF643008F0C2CFE62FF0E0EC
:10466000EE0FFF1FE05DFE4F2081318189E090E079
:10467000D6CF80E189BD82E189BD09B400FEFDCFBE
:104680008091D8008F7D8093D8008091E000826077
:104690008093E0008091E00081FDFCCF0895AF920F
:1046A000BF92CF92DF92FF920F931F93CF93DF932E
:1046B0006C01EB018A010E94B024F82E811123C005
:1046C0000115110539F0F80180819181C81BD90BC2
:1046D000C80ED91EB12CA12C2097A9F08091E8001A
:1046E00085FD22C08091E8008E778093E800011557
:1046F0001105A1F0F80180819181A80EB91EB18247
:10470000A08285E0F82E8F2DDF91CF911F910F9120
:10471000FF90DF90CF90BF90AF9008950E94B0249B
:104720008823D1F2F82EEFCFF60181916F018093AB
:10473000F1002197FFEFAF1ABF0ACECFFC018091A5
:104740005F029091600286179707A0F061157105CE
:1047500029F49091E8009E779093E80090E061152D
:10476000710551F4911108C08091E80082FF35C0B5
:1047700080E00895BC01F2CF809158028823C9F1EE
:104780008530C9F18091E80083FD31C08091E80057
:1047900082FDEACF8091E80080FFE1CF2091F30015
:1047A0008091F200322F282F6115710519F0283001
:1047B000310558F091E02830310509F090E0209162
:1047C000E8002E772093E800CACF81918093F10012
:1047D000615071092F5F3F4FE7CF809158028823C6
:1047E00041F0853041F08091E80083FFBDCF81E04A
:1047F000089582E0089583E00895FC0180915F02AE
:104800009091600286179707A0F06115710529F451
:104810008091E8008E778093E80090E06115710543
:1048200051F4911108C08091E80082FF36C080E009
:104830000895BC01F2CF809158028823D1F18530D0
:10484000D1F18091E80083FD32C08091E80082FDC3
:10485000EACF8091E80080FFE1CF2091F3008091C2
:10486000F200322F282F6115710519F0283031051B
:1048700058F091E02830310509F090E08091E8008F
:104880008E778093E800CACF84918093F1003196AF
:10489000615071092F5F3F4FE6CF80915802882306
:1048A00041F0853041F08091E80083FFBCCF81E08A
:1048B000089582E0089583E00895982F973028F0B6
:1048C0008F708093E90081E008959093E900242F90
:1048D000762F50E0981731F07091EC002091ED00A8
:1048E0005091F00021FD02C09F5FE8CF3091EB00B6
:1048F0003E7F3093EB003091ED003D7F3093ED0033
:104900003091EB0031603093EB007093EC0020931A
:10491000ED005093F0002091EE0027FDE5CF80E000
:1049200008958091590287FF13C08091E80082FFAB
:1049300006C08091E8008B778093E80004C08091E6
:1049400058028111F2CF0895809158028823D9F33B
:104950008091E80080FFF8CF8091E8008E77ECCF5F
:104960002091E4003091E50085E69091EC0090FF05
:1049700006C09091E80090FF06C080E008959091F5
:10498000E80092FDFACF90915802992391F095306A
:1049900091F09091EB0095FD10C04091E400509192
:1049A000E5002417350709F381509A01F1F684E0F8
:1049B000089582E0089583E0089581E008950E94BB
:1049C0004D250E945525E0EEF0E0808181608083D6
:1049D000E8EDF0E080818F77808319BCA7EDB0E02F
:1049E0008C918E7F8C9380818F7E80831092570272
:1049F00008950F931F93CF93DF930E944D250E943C
:104A00005525C8EDD0E088818F77888388818068BC
:104A1000888388818F7D888319BC109258021092F8
:104A20005402109256021092550200EE10E0F80166
:104A300080818B7F808388818160888342E060E011
:104A400080E00E945D24E1EEF0E080818E7F808333
:104A5000E2EEF0E0808181608083808188608083E5
:104A6000F80180818E7F8083888180618883DF91D7
:104A7000CF911F910F910895E8EDF0E080818F7E36
:104A80008083E7EDF0E080818160808384E082BFF5
:104A900081E0809357020C94F924E8EDF0E08081E6
:104AA0008E7F80831092E20008951092DA001092B7
:104AB000E10008951F920F920FB60F9211242F93C9
:104AC0003F934F935F936F937F938F939F93AF9396
:104AD000BF93EF93FF938091E10082FF0BC0809121
:104AE000E20082FF07C08091E1008B7F8093E100AC
:104AF0000E94BD278091DA0080FF19C08091D80004
:104B000080FF15C08091DA008E7F8093DA0080915B
:104B1000D90080FF94C080E189BD82E189BD09B4DC
:104B200000FEFDCF81E0809358020E94D121809148
:104B3000E10080FF19C08091E20080FF15C08091E4
:104B4000E2008E7F8093E2008091E200806180939A
:104B5000E2008091D80080628093D80019BC85E083
:104B6000809358020E94E3218091E10084FF29C0D4
:104B70008091E20084FF25C080E189BD82E189BD8A
:104B800009B400FEFDCF8091D8008F7D8093D800BE
:104B90008091E1008F7E8093E1008091E2008F7E22
:104BA0008093E2008091E20081608093E200809136
:104BB0005402882309F449C084E0809358020E947B
:104BC000E4218091E10083FF29C08091E20083FF0E
:104BD00025C08091E100877F8093E10082E080938F
:104BE0005802109254028091E1008E7F8093E10080
:104BF0008091E2008E7F8093E2008091E2008061EC
:104C00008093E20042E060E080E00E945D248091B9
:104C1000F00088608093F0000E94E221FF91EF9104
:104C2000BF91AF919F918F917F916F915F914F91C4
:104C30003F912F910F900FBE0F901F90189519BCA8
:104C4000109258020E94DF2172CF8091E30087FD0D
:104C500002C081E0B2CF83E0B0CF1F920F920FB6B7
:104C60000F9211242F933F934F935F936F937F93F2
:104C70008F939F93AF93BF93CF93EF93FF93C09185
:104C8000E900CF708091EC001092E9008091F00073
:104C9000877F8093F00078940E9469261092E90043
:104CA0008091F00088608093F000C093E900FF914C
:104CB000EF91CF91BF91AF919F918F917F916F9124
:104CC0005F914F913F912F910F900FBE0F901F90CA
:104CD00018951F93CF93DF93CDB7DEB7AA970FB682
:104CE000F894DEBF0FBECDBFE9E5F2E08091F100A0
:104CF000819322E0E136F207C9F70E94FA21809100
:104D0000E80083FF42C08091590290915A029A3084
:104D100008F03BC0E92FF0E0E057F94D0C9433293F
:104D20009A26BE26C526BE26C52619273B27C52698
:104D300090279D27803879F0823839F580915D027F
:104D40008F708093E9008091EB0085FB882780F9C4
:104D50001092E90006C0809155029091560291117F
:104D600082609091E800977F9093E8008093F10033
:104D70001092F1008091E8008E772DC0282F2D7FB2
:104D800021F48823D1F0823059F18091E80083FF2B
:104D90000AC08091E800877F8093E8008091EB0053
:104DA00080628093EB00AA960FB6F894DEBF0FBE28
:104DB000CDBFDF91CF911F91089580915B0281302B
:104DC00021F7933009F080E0809356021092E900B9
:104DD0008091E800877F8093E8000E949124D5CFDE
:104DE00080915B028111F2CF80915D028F7069F238
:104DF0008093E9002091EB0020FFE8CF933031F45D
:104E00008091EB0080628093EB00E0CF9091EB000B
:104E100090619093EB0021E030E001C0220F8A9571
:104E2000EAF72093EA001092EA008091EB00886094
:104E3000EACF8111AACF10915B021F778091E30026
:104E40008078812B8093E3008091E800877F8093B6
:104E5000E8000E9491248091E80080FFFCCF8091BF
:104E6000E30080688093E30083E0111101C082E0D9
:104E7000809358028ACF8058823008F086CF809184
:104E80005B0290915C028C3D23E09207A1F583E0E8
:104E90008A838AE289834FB7F894DE01139620E073
:104EA0003EE051E2E32FF0E050935700E49120FF01
:104EB00003C0E295EF703F5FEF708E2F90E0EA3015
:104EC000C0F0C7968D939D932F5F243159F74FBF44
:104ED0008091E800877F8093E8006AE270E0CE016D
:104EE00001960E949E238091E8008B778093E800D2
:104EF0004CCFC096E7CFAE014F5F5F4F60915D0230
:104F00000E94E422BC01892B09F43FCF9091E80074
:104F1000977F9093E80089819A810E94FD23E3CFD7
:104F2000803809F032CF8091E800877F8093E800D5
:104F3000809154028093F1001DCF811126CF909172
:104F40005B02923008F021CF8091E800877F809348
:104F5000E800909354020E94912480915402882387
:104F600031F084E0809358020E94E6210ECF8091B8
:104F7000E30087FDF6CF81E0F5CF0895CF938091D0
:104F80005802882399F0C091E900CF708091EC001D
:104F900080FD0EC080E0C82B1092E9008091E800EF
:104FA00083FD0E946926CF70C093E900CF910895D8
:104FB00080E8F1CF0E94E1276894B1110C94702829
:104FC00008950E94552888F09F5798F0B92F992787
:104FD000B751B0F0E1F0660F771F881F991F1AF0E4
:104FE000BA95C9F714C0B13091F00E946F28B1E0B2
:104FF00008950C946F28672F782F8827B85F39F0B1
:10500000B93FCCF3869577956795B395D9F73EF47C
:1050100090958095709561957F4F8F4F9F4F089524
:10502000E89409C097FB3EF4909580957095619542
:105030007F4F8F4F9F4F9923A9F0F92F96E9BB27F8
:105040009395F695879577956795B795F111F8CF74
:10505000FAF4BB0F11F460FF1BC06F5F7F4F8F4FDF
:105060009F4F16C0882311F096E911C0772321F0D5
:105070009EE8872F762F05C0662371F096E8862F6D
:1050800070E060E02AF09A95660F771F881FDAF7C4
:10509000880F9695879597F9089557FD9058440F76
:1050A000551F59F05F3F71F04795880F97FB991F87
:1050B00061F09F3F79F08795089512161306140644
:1050C000551FF2CF4695F1DF08C0161617061806D1
:1050D000991FF1CF86957105610508940895E894AC
:1050E000BB2766277727CB0197F908950E94892867
:1050F0000C94FA280E94EC2838F00E94F32820F043
:10510000952311F00C94E3280C94E92811240C94B5
:1051100070280E944D2870F3959FC1F3950F50E0C1
:10512000551F629FF001729FBB27F00DB11D639F59
:10513000AA27F00DB11DAA1F649F6627B00DA11DFF
:10514000661F829F2227B00DA11D621F739FB00DA5
:10515000A11D621F839FA00D611D221F749F332715
:10516000A00D611D231F849F600D211D822F762FAE
:105170006A2F11249F5750409AF0F1F088234AF08B
:10518000EE0FFF1FBB1F661F771F881F91505040F7
:10519000A9F79E3F510580F00C94E3280C947028E9
:1051A0005F3FE4F3983ED4F3869577956795B7957E
:1051B000F795E7959F5FC1F7FE2B880F911D969598
:1051C000879597F9089597F99F6780E870E060E008
:1051D00008959FEF80EC089500240A941616170690
:1051E00018060906089500240A94121613061406D8
:1051F00005060895092E0394000C11F4882352F03B
:10520000BB0F40F4BF2B11F460FF04C06F5F7F4FF2
:105210008F4F9F4F0895AA1BBB1B51E107C0AA1FC8
:10522000BB1FA617B70710F0A61BB70B881F991F47
:105230005A95A9F780959095BC01CD01089597FBEB
:10524000072E16F4009407D077FD09D00E940B2991
:1052500007FC05D03EF4909581959F4F0895709579
:1052600061957F4F0895EE0FFF1F0590F491E02D9B
:105270000994F999FECF92BD81BDF89A992780B51E
:105280000895A6E1B0E044E050E00C947329A8E151
:10529000B0E042E050E00C947329262FF999FECF3C
:1052A00092BD81BDF89A019700B4021639F01FBA79
:1052B00020BD0FB6F894FA9AF99A0FBE0895039696
:1052C000272F0E944E290E944D29252F0E944E29EA
:1052D000242F0C944E290196272F0E944E290C94BE
:1052E0004D29DC01CB01FC01F999FECF06C0F2BDCE
:1052F000E1BDF89A319600B40D9241505040B8F794
:065300000895F894FFCFB0
:10530600FFE4012808140A321EEF2081215C2126C1
:1053160021F22001F4F5F6F73133323635C63497EB
:1053260090919466404D3639E90A9C0A660A2D0A20
:08533600C009D909F2090B0AB4
:00000001FF
